:200000000C945C000C946E000C946E000C946E000C946E000C946E000C946E000C946E0082
:200020000C946E000C946E000C946E000C946E000C946E000C946E000C946E000C946E0050
:200040000C942E010C946E000C946E000C946E000C946E000C946E000C946E000C946E006F
:200060000C946E000C946E0000000000240027002A0000000000250028002B000404040467
:200080000404040402020202020203030303030301020408102040800102040810200102F1
:2000A00004081020000000080002010000030407000000000000000011241FBECFEFD4E067
:2000C000DEBFCDBF21E0A0E0B1E001C01D92A930B207E1F70E9478010C9409020C940000A5
:2000E000E1EBF0E02491EDE9F0E09491E9E8F0E0E491EE2309F43BC0222339F1233091F082
:2001000038F42130A9F0223001F524B52F7D12C0273091F02830A1F02430B9F42091800037
:200120002F7D03C0209180002F77209380000DC024B52F7724BD09C02091B0002F7703C086
:200140002091B0002F7D2093B000F0E0EE0FFF1FEE58FF4FA591B4912FB7F894EC918111B4
:2001600003C090959E2301C09E2B9C932FBF08953FB7F8948091050190910601A091070198
:20018000B091080126B5A89B05C02F3F19F00196A11DB11D3FBFBA2FA92F982F8827820FD2
:2001A000911DA11DB11DBC01CD0142E0660F771F881F991F4A95D1F708958F929F92AF9217
:2001C000BF92CF92DF92EF92FF926B017C010E94B8004B015C01C114D104E104F104F1F099
:2001E0000E94B800DC01CB0188199909AA09BB09883E9340A105B10570F321E0C21AD10834
:20020000E108F10888EE880E83E0981EA11CB11CC114D104E104F10419F7DDCFFF90EF90FF
:20022000DF90CF90BF90AF909F908F900895CF93DF93EC0181E00E94700068EC70E080E03F
:2002400090E00E94DD0080E00E947000BE01DD0F880B990BDF91CF910C94DD001F920F92BC
:200260000FB60F9211242F933F938F939F93AF93BF938091010190910201A0910301B091BA
:2002800004013091000123E0230F2D3720F40196A11DB11D05C026E8230F0296A11DB11D9E
:2002A000209300018093010190930201A0930301B09304018091050190910601A091070158
:2002C000B09108010196A11DB11D8093050190930601A0930701B0930801BF91AF919F9127
:2002E0008F913F912F910F900FBE0F901F901895789484B5826084BD84B5816084BD85B5EA
:20030000826085BD85B5816085BD80916E00816080936E00109281008091810082608093D1
:20032000810080918100816080938100809180008160809380008091B10084608093B100C6
:200340008091B00081608093B00080917A00846080937A0080917A00826080937A00809131
:200360007A00816080937A0080917A00806880937A001092C100EDE9F0E02491E9E8F0E036
:200380008491882399F090E0880F991FFC01E859FF4FA591B491FC01EE58FF4F8591949182
:2003A0008FB7F894EC91E22BEC938FBFC0E0D0E088EC90E00E9417018CE291E00E9417018D
:2003C00084E690E00E94170184E690E00E94170184EF91E00E94170184E690E00E941701C3
:2003E00084E690E00E94170184E690E00E94170184EF91E00E94170184E690E00E941701A3
:2004000088EE93E00E941701209791F20E940000CFCFF894FFCFFFFFFFFFFFFFFFFFFFFF6F
:20042000FFFFFFFFFFFFFFFFFFFFFFFFFFFFFFFFFFFFFFFFFFFFFFFFFFFFFFFFFFFFFFFFDC
:20044000FFFFFFFFFFFFFFFFFFFFFFFFFFFFFFFFFFFFFFFFFFFFFFFFFFFFFFFFFFFFFFFFBC
:20046000FFFFFFFFFFFFFFFFFFFFFFFFFFFFFFFFFFFFFFFFFFFFFFFFFFFFFFFFFFFFFFFF9C
:20048000240180911C0190911D01A0911E01B0911F010196A11DB11D80931C0190931D0185
:2004A000A0931E01B0931F01BF91AF919F918F913F912F910F900FBE0F901F9018951F92FF
:2004C0000F920FB60F9211242F933F934F935F936F937F938F939F93AF93BF93EF93FF9368
:2004E00085E291E00E943D01FF91EF91BF91AF919F918F917F916F915F914F913F912F91E4
:200500000F900FBE0F901F9018951F920F920FB60F9211242F938F939F93EF93FF93E091EC
:200520003501F09136018081E0913B01F0913C0182FD12C0908180913E018F5F8F7320910E
:200540003F01821751F0E0913E01F0E0EB5DFE4F958F80933E0101C08081FF91EF919F91F4
:200560008F912F910F900FBE0F901F901895CF93DF93CDB7DEB7A1970FB6F894DEBF0FBE54
:20058000CDBF789484B5826084BD84B5816084BD85B5826085BD85B5816085BD80916E00D2
:2005A000816080936E00109281008091810082608093810080918100816080938100809196
:2005C00080008160809380008091B10084608093B1008091B00081608093B00080917A00CD
:2005E000846080937A0080917A00826080937A0080917A00816080937A0080917A00806824
:2006000080937A001092C100E0913501F091360182E08083E0913101F09132011082E091CC
:200620003301F09134018FEC808310923D01E0913901F0913A0186E08083E0913701F09178
:200640003801808180618083E0913701F0913801808188608083E0913701F09138018081C9
:2006600080688083E0913701F091380180818F7D808388E690E00E9405022FB7F894809112
:20068000210190912201A0912301B09124012FBF8093180190931901A0931A01B0931B0135
:2006A0008AE0C82ED12CE12CF12C8FB7F8948090210190902201A0902301B09024018FBF65
:2006C0008091180190911901A0911A01B0911B01A5019401281B390B4A0B5B0BDA01C901EA
:2006E000893E9340A105B10508F461C08AEE90E00E94A6004090160150901701052C000C9B
:200700006608770877FE26C0E0912501F09126010190F081E02D6DE285E291E00995222735
:200720003327A901241935094609570919A28E010F5D1F4FCA01B901A70196010E945204AB
:20074000605DF80162938F01211531054105510589F715C0A301920119A28E010F5D1F4FA6
:20076000CA01B901A70196010E945204605DF80162938F01211531054105510589F7C80131
:200780000E94F30186EE90E00E9405028091160190911701019690931701809316018092C7
:2007A000180190921901A0921A01B0921B0185E291E00E942701892B89F185E291E00E94EF
:2007C00005018C0180EE90E00E94A600E0912501F09126010190F081E02D602F85E291E0AB
:2007E000099582E191E00E94F3010335110579F484EC90E00E94050285E291E00E94A5018D
:2008000010921701109216010E94D10107C00134110521F486EB90E00E9405028091160118
:20082000909117010A9774F08BE990E00E94050285E291E00E94A50110921701109216015A
:200840000E94D1010E94C70130CFE5E2F1E01382128288EE93E0A0E0B0E084839583A683B9
:20086000B78384E091E09183808385EC90E09587848784EC90E09787868780EC90E0918B47
:20088000808B81EC90E0938B828B82EC90E0958B848B86EC90E0978B868B118E128E138E43
:2008A000148E0895A1E21A2EAA1BBB1BFD010DC0AA1FBB1FEE1FFF1FA217B307E407F507A0
:2008C00020F0A21BB30BE40BF50B661F771F881F991F1A9469F760957095809590959B0146
:2008E000AC01BD01CF010895EE0FFF1F0590F491E02D099481E090E0F8940C947F04F89435
:20090000FFCF000000005E01C700F600A5012701050119010D0A0000FFFFFFFFFFFFFFFFF0
:20092000FFFFFFFFFFFFFFFFFFFFFFFFFFFFFFFFFFFFFFFFFFFFFFFFFFFFFFFFFFFFFFFFD7
:20094000FFFFFFFFFFFFFFFFFFFFFFFFFFFFFFFFFFFFFFFFFFFFFFFFFFFFFFFFFFFFFFFFB7
:20096000FFFFFFFFFFFFFFFFFFFFFFFFFFFFFFFFFFFFFFFFFFFFFFFFFFFFFFFFFFFFFFFF97
:2009800044E0220F331F4A95E1F7822B932B8F709F709C01220F331F220F331F822B932B72
:2009A000837393739C01220F331F822B932B857595759C01220F331F822B932B0895CF9322
:2009C000DF93DC011C96ED91FC911D9784913196E491681720F1E61710F170E0681B71092B
:2009E00083E0660F771F8A95E1F7CB010296EA01665F7F4F1C96ED91FC911D97E80FF91F30
:200A0000E491E993019686179707A1F751968C91882399F0FA019A01285F3F4F08C0FA01D5
:200A2000CA0108961192E817F907E1F7EFCF808180958193E217F307D1F7DF91CF910895C3
:200A4000CF92DF92EF92FF920F931F93CF93DF93CDB7DEB728970FB6F894DEBF0FBECDBF6B
:200A6000FC01F6A86A3021F4F394F6AA15AA18C08C01E5A86C0184E0C80ED11CAE014F5F63
:200A80005F4FC6010E94DF049E012F5F3F4F4F2D6E2DC6010E94ED0CF80185A98F5F85ABE3
:200AA00081E090E028960FB6F894DEBF0FBECDBFDF91CF911F910F91FF90EF90DF90CF9064
:200AC00008951F93CF93DF93282F30E0F901E651FE4F8491F901EA52FE4FD491F901EE53D6
:200AE000FE4FC491CC23C9F0162F81110E94C702EC2FF0E0EE0FFF1FE255FE4FA591B49165
:200B00008FB7F894111105C09C91ED2FE095E92302C0EC91ED2BEC938FBFDF91CF911F91AE
:200B20000895CF93DF9390E0FC01EA52FE4F2491FC01EE53FE4F8491882361F190E0880FF5
:200B4000991FFC01EC55FE4FC591D491FC01E255FE4FA591B491611109C09FB7F894888175
:200B6000209582238883EC912E230BC0623061F49FB7F8943881822F809583238883EC9101
:200B80002E2B2C939FBF06C08FB7F894E8812E2B28838FBFDF91CF9108958F929F92AF928C
:200BA000BF92CF92DF92EF92FF921F93CF93DF93EC016C3288F46A3208F083C06832B1F061
:200BC000693209F067C0C42ED12CE12CF12C0E9419034B015C0137C06D32D9F108F45AC064
:200BE00084EB860F823008F443C054C06B9610E089918F3F39F0103110F461E001C062E0A1
:200C00000E9491051F5F163199F75BC00E941903DC01CB0188199909AA09BB09883E934072
:200C2000A105B10580F021E0C21AD108E108F10888EE880E83E0981EA11CB11CC114D104F7
:200C4000E104F10419F7C114D104E104F104F1F638C0433018F082E090E002C085E090E063
:200C6000880F991F880F991F05970197F1F729C0962F9F73C90FD11D411107C061E08B8DC2
:200C80000E94910560E08B8D12C062E08B8D0E94910517C06034B8F0962F9F73FE01E90F7F
:200CA000F11D838D8F3F69F0903120F4642F0E94610507C00E94F00221E0892B09F420E072
:200CC0002E8B81E001C080E0DF91CF911F91FF90EF90DF90CF90BF90AF909F908F90089504
:200CE0001F920F920FB60F9211242F933F938F939F93AF93BF938091980290919902A091F3
:200D00009A02B0919B023091D30123E0230F2D3720F40196A11DB11D05C026E8230F029657
:200D2000A11DB11D2093D3018093980290939902A0939A02B0939B028091D4019091D501A9
:200D4000A091D601B091D7010196A11DB11D8093D4019093D501A093D601B093D701BF91F9
:200D6000AF919F918F913F912F910F900FBE0F901F9018959B01DC011896ED91FC9119970A
:200D800041E067E1099485ED8093BC008091BC0084FDFCCF1092670208954091FA01262F2A
:200DA00030E0240F311D21323105DCF4209167022430C9F4FC0180E090E0861758F43091A7
:200DC000FA012191DC01A852BE4FA30FB11D2C930196F3CF8091FA01680F6093FA0180E019
:200DE000089581E0089582E008950895E091200280911F02E81730F4F0E0EF5DFD4F80816B
:200E000090E008958FEF9FEF08959091200280911F02981750F4E92FF0E0EF5DFD4F208193
:200E200030E09F5F9093200202C02FEF3FEFC901089580911F0290E020912002821B91093E
:200E40000895CF92DF92EF92FF920F931F93CF93DF937C01262F972F8A01809168028823A0
:200E600091F0C62FD72F6E01C40ED51ECC15DD0571F06991D701ED91FC910190F081E02DB2
:200E8000C7010995F3CF642F822F0E94CD06C801DF91CF911F910F91FF90EF90DF90CF90AC
:200EA0000895CF93DF931F92CDB7DEB76983209168022223D1F020918B02203240F021E029
:200EC00030E0FC013383228380E090E015C080916902E82FF0E0E659FD4F998190838F5FFC
:200EE0008093690280938B0205C061E0CE0101960E94CD0681E090E00F90DF91CF91089516
:200F000080E00895DC011A96ED91FC911B9720E030E00994DC011696ED91FC91179720E09B
:200F200030E040E069E10994DC011696ED91FC91179720E030E040E068E109949A01DC01CA
:200F40001696ED91FC911797462F67E10994EF92FF920F931F93CF93DF931F92CDB7DEB7CE
:200F60007C018B01D8016C916731E1F078F46531A0F1F80141814983D7011696ED91FC9180
:200F8000179720E030E0C701099524C06A31A8F06E3F19F5F8014181498369E2C7010E941F
:200FA000820718C0F80181818983AE014F5F5F4F61E0C7010E949E070DC00F5F1F4FD701ED
:200FC0001696ED91FC91179720E030E040E0C7010995C8CF0E5F1F4FC5CF0F90DF91CF91A1
:200FE0001F910F91FF90EF900895462FDC011696ED91FC91179720E030E066E10994462FD6
:20100000DC011696ED91FC91179720E030E065E10994EF92FF920F931F93CF93DF93EC0174
:20102000142F79016D30A9F118F46B3039F15FC06E3009F441C06F3009F059C00E94940742
:20104000F70183810889F8E08F9F000D112460E4CE010E94FF07602F62956F706061CE010B
:201060000E94FF07602F6F70CE010E94F507F7016481606BCE010E94F50729C0411103C0DA
:2010800063E171E002C06EE071E0CE010E94A70771C0411108C067E071E00E94A707E8819F
:2010A000F981828907C060E071E00E94A707E881F9818389888B5EC00E94940761E8CE018E
:2010C0000E94FF07612FCE010E94F5070CC0F701408151816281660F660F660FCE010E9461
:2010E0009E071150A1F7CE010E948A0743C0693031F48DE491E099838883188A3BC06A304F
:20110000B9F5EA85FB8520E030E040E068E2CE010995EE81FF8120E030E040E064E1CE0118
:20112000099541E06BE4CE010E948207E881F981448169E2CE010E94820740E06BE4CE017C
:201140000E948207E881F981448169E2CE010E94820741E06BE4CE010E948207E881F9812A
:20116000458169E2CE010E94820768E171E08DCF80E001C081E0DF91CF911F910F91FF903D
:20118000EF900895DC011896ED91FC91199720E030E040E069E10994DC011896ED91FC9140
:2011A000199720E030E040E068E10994CF93DF931F92CDB7DEB76983BE016F5F7F4F0E94E2
:2011C000BA060F90DF91CF910895EF92FF921F93CF93DF93EC01162F7A010E94CC0860E444
:2011E000CE010E94D608E885F9859701412F67E1CE010995CE01DF91CF911F91FF90EF909B
:201200000C94C208EF92FF921F93CF93DF9300D0CDB7DEB77C01142F673128F4653140F4A5
:20122000643149F141C0673191F06A3170F03CC00E94CC0860E0C7010E94D608612FC70178
:201240000E94D608C7010E94C20881E02EC0A901193160F068E1C70129833A830E94E5083E
:20126000185129813A81285E3F4FF1CF612FC7010E94E508EACFDC0152968C9152978F3F93
:2012800019F488E752968C93D7011896ED91FC911997412F64E1C7010F900F90DF91CF91FF
:2012A0001F91FF90EF90099480E00F900F90DF91CF911F91FF90EF900895662329F06A30CE
:2012C00019F0862F90E008958FEF9FEF0895EF92FF920F931F93CF93DF93CDB7DEB7289788
:2012E0000FB6F894DEBF0FBECDBF1092BC027C0110E000E0F70161917F01E091A902F091F3
:20130000AA0287EA92E009958F3FFFEF9F07C1F08E3F2FEF920771F3AE014F5F5F4F682F03
:2013200087EA92E00E94DF049E012F5F3F4F43E0602F87EA92E00E94ED0C0F5F1F5FDACFC5
:20134000812F28960FB6F894DEBF0FBECDBFDF91CF911F910F91FF90EF900895CF92DF923B
:20136000EF92FF920F931F93CF93DF93CAEDD2E02981822F90E046E0249F90011124F90156
:20138000E05EFA4F059114911D830C83AC0183E0440F551F8A95E1F7FA01E050FB4F659123
:2013A000759185919491698B7A8B8B8B9C8BF901EE5DFA4F259134913A8F298FFA01EC5FE6
:2013C000FA4FC590D590E590F490CD8ADE8AEF8AF88E20E030E040EA51E40E942F176B8F02
:2013E0007C8F8D8F9E8FB80185E0DF91CF911F910F91FF90EF90DF90CF900C94720CAAEDCA
:20140000B2E01196EC91119786E0E89FF0011124EC5DFA4F659174916766746213967C9373
:201420006E93129780E00C94720C8091DB028F5F843018F48093DB0202C01092DB020E9415
:20144000FF090C94AE091F920F920FB60F9211242F933F934F935F936F937F938F939F9370
:20146000AF93BF93EF93FF938091B900887F803609F49CC068F5883209F45BC090F4803180
:2014800009F454C038F4882309F4F6C0883009F44DC0F6C0883109F44CC0803209F45DC0AB
:2014A000EFC0803409F468C048F4803309F455C0883309F0E5C080936502D8C0803509F486
:2014C0004FC0883509F45DC0883409F0D9C0D6C0883909F4C7C0A8F4883709F467C038F452
:2014E000883609F463C0803709F460C0C9C0883809F4B8C0803909F45FC0803809F0C0C076
:201500005BC0803B09F486C038F4803A09F466C0883A09F47FC0B4C0803C09F4A7C0883C53
:2015200009F4A4C0883B09F48AC0AAC08091420210C09091640280916302981770F5E0912F
:20154000640281E08E0F80936402F0E0ED5BFD4F80818093BB0085EC86C0809365028EC0FC
:20156000E091640281E08E0F809364028091BB00F0E0ED5BFD4F80839091640280916302ED
:201580006EC0E091640281E08E0F809364028091BB00F0E0ED5BFD4F808380916602811191
:2015A0006DC081E08093410284EA61C083E08093670210921E02CFCF80911E02803208F09E
:2015C00051C0E0911E0281E08E0F80931E028091BB00F0E0E250FE4F8083BDCF85EC80930A
:2015E000BC001092670280911E02803230F4E0911E02F0E0E250FE4F108260911E0270E04A
:20160000E091FC01F091FD018EEF91E0099510921E0236C084E0809367021092FB01109279
:20162000FA01E091F801F091F90109958091FA01811105C081E08093FA011092D801E0916E
:20164000FB0181E08E0F8093FB01F0E0E852FE4F80818093BB009091FB018091FA01981783
:2016600008F479CF85E88093BC000AC085EC8093BC001092670204C0109265020E94C3069D
:20168000FF91EF91BF91AF919F918F917F916F915F914F913F912F910F900FBE0F901F9030
:2016A00018951092670281E0809366021092410261E082E10E94610561E083E10E94610558
:2016C000E9EBF0E080818E7F808380818D7F808388E48093B80085E48093BC0008951F9387
:2016E000CF93DF9300D000D01F92CDB7DEB71C8221E02B839A838983E091A702F091A802F1
:2017000011891D82A091A702B091A802E091AB02F091AC029E012F5F3F4F50964C916FE0B1
:2017200087EA92E009958D818F5F8D83811750F30F900F900F900F900F90DF91CF911F91A6
:20174000089520918B0290918A02213208F04AC0809167028111FCCF32E03093670231E086
:20176000309366023FEF309365021092640220936302AAE6B2E043E452E0FA013E2F341B94
:20178000321718F43D913193F9CF1092420220914202990F922B90934202909141029130CE
:2017A00061F410924102909142029093BB009091BC0093FDF8CF95EC01C095EE9093BC00D4
:2017C000909167029230E1F3909165029F3F79F080916502803241F080916502803331F073
:2017E00084E005C081E003C082E001C083E01092690210928B021092680208951F93CF931D
:20180000DF93EB019091DA0221E02093680290938A021092690210928B02682F8CE892E0E7
:201820000E9451070E94A10B2091DA02809167028111FCCF81E080936702809366029FEF16
:201840009093650210926402809363028093420290914202822F880F892B8093420280915E
:201860004102813061F410924102809142028093BB008091BC0083FDF8CF85EC01C085EE5E
:201880008093BC00809167028130E1F380916402823018F48091640201C082E0A3E4B2E092
:2018A00021E232E0F9019E2F921B981718F49D919193F9CF1092200280931F028CE892E0EC
:2018C0000E940507182F8CE892E00E94050720E030E0312F822B932B99838883DF91CF91AD
:2018E0001F9108951F93CF93DF931F92CDB7DEB7162F9091DA0221E02093680290938A023C
:201900001092690210928B02682F8CE892E079830E9451077981672F8CE892E00E945107A8
:20192000612F8CE892E00E9451070F90DF91CF911F910C94A10BCF93DF9300D0CDB7DEB70F
:201940006091DE027091DF0285E00E94720CBE016F5F7F4F84E00E94FE0B89819A810F9021
:201960000F90DF91CF9108950F931F93CF93DF938C01C0E0D0E0F801EC0FFD1F64916623C8
:2019800071F0E091A302F091A4020190F081E02D83EA92E00995892B11F02196ECCFCE0127
:2019A000DF91CF911F910F910895BC01009791F0FC0101900020E9F73197AF01481B590BC8
:2019C000E091A302F091A4020280F381E02D83EA92E0099480E090E00895CF93DF9300D03A
:2019E00000D01F92CDB7DEB76C834D8341E04B833A832983DC011496ED91FC9115979E0159
:201A00002F5F3F4F6FE009950F900F900F900F900F90DF91CF9108953F924F925F926F9291
:201A20007F928F929F92AF92BF92CF92DF92EF92FF920F931F93CF93DF93CDB7DEB768978D
:201A40000FB6F894DEBF0FBECDBFF82E562E1092BC026A01E12C8E010F5E1F4F88E0382E85
:201A6000300E44244394460EF60161916F01E091A902F091AA0287EA92E009958F3FFFEFB6
:201A80009F0709F455C08E3F2FEF920769F3A801682F87EA92E00E94DF04CE0109963C015B
:201AA000FE0131964F015801F50181915F010E94BE04F30191933F01F40181934F013A10F0
:201AC000F3CFB801CE0101960E94B0049801452D6F2D87EA92E00E94ED0CB801CE01059687
:201AE0000E94B004BB24B394BF0C9801452D6B2D87EA92E00E94ED0CB801CE0109960E94B5
:201B0000B0049801442D6F2D87EA92E00E94ED0CB801CE010D960E94B0049801442D6B2DCA
:201B200087EA92E00E94ED0CF394F394E3949CCF8E2D68960FB6F894DEBF0FBECDBFDF91C7
:201B4000CF911F910F91FF90EF90DF90CF90BF90AF909F908F907F906F905F904F903F9072
:201B60000895E091A302F091A4020190F081E02D682F83EA92E009948F929F92AF92BF9285
:201B80000F931F93CF93DF93CDB7DEB7A1970FB6F894DEBF0FBECDBF19A2423008F44AE032
:201BA0008E010F5D1F4F842E912CA12CB12CA50194010E943D15E62FB901CA01015011096F
:201BC000EA3014F4E05D01C0E95CD801EC93232B242B252B61F7C8010E94D50CA1960FB6BB
:201BE000F894DEBF0FBECDBFDF91CF911F910F91BF90AF909F908F9008954F925F926F92F7
:201C00007F928F929F92AF92BF92CF92DF92EF92FF926B017C01B42E9B01AC010E949C1782
:201C2000882319F083E891E027C026013701E89477F82FEF3FEF4FE75FE7C301B2010E9402
:201C40009C1781110DC02FEF3FEF4FE75FE7C301B2010E94D21518161CF487E891E00CC0C0
:201C60002FEF3FEF4FE75FE4C701B6010E942A17181684F48BE891E0FF90EF90DF90CF90D7
:201C8000BF90AF909F908F907F906F905F904F900C94D50C2FEF3FEF4FE75FECC701B601BF
:201CA0000E94D21587FDE6CF20E030E0A901C701B6010E94D21587FF09C08DE20E94B10D82
:201CC0004C01F7FAF094F7F8F09402C0812C912CA12C60E070E080E09FE3AB1441F020E074
:201CE00030E040E251E40E94D715A394F6CF9B01AC01C701B6010E9466152B013C010E9403
:201D000049166B017C010E9478169B01AC01C301B2010E9465152B013C014AE0C701B6015D
:201D20000E94BC0D7C01E80CF91CBB2029F08EE20E94B10DE80EF91EDB2CDD2021F120E0CB
:201D400030E040E251E4C301B2010E942F172B013C010E9449164B01A12CB12C4AE0C5016D
:201D6000B4010E94BC0DE80EF91EC501B4010E9478169B01AC01C301B2010E9465152B0183
:201D80003C01DA94DACFC701FF90EF90DF90CF90BF90AF909F908F907F906F905F904F9093
:201DA0000895CF93DF93CDB7DEB72D970FB6F894DEBF0FBECDBFFE01319698E0DF011D92C1
:201DC0009A95E9F7A091A702B091A80251969C915197891798F41C868D8781E08B87FA875D
:201DE000E987E091AB02F091AC029E01275F3F4F50964C916FE087EA92E009952D960FB658
:201E0000F894DEBF0FBECDBFDF91CF910895CF93DF93CDB7DEB765970FB6F894DEBF0FBE2F
:201E2000CDBF789484B5826084BD84B5816084BD85B5826085BD85B5816085BD80916E0019
:201E4000816080936E001092810080918100826080938100809181008160809381008091DD
:201E600080008160809380008091B10084608093B1008091B00081608093B00080917A0014
:201E8000846080937A0080917A00826080937A0080917A00816080937A0080917A0080686B
:201EA00080937A001092C10061E08DE00E949105E091AB02F091AC0220E030E040E06AE085
:201EC00087EA92E009958E010F5F1F4F780188E0F80111928A95E9F7C8010E946F0BE09144
:201EE000AB02F091AC0220E030E040E06BE087EA92E009951092200210921F021092690276
:201F000010928B020E94510B0E94FF090E94AE098EEFC82E81E0D82E2FB7F894809198029A
:201F200090919902A0919A02B0919B022FBF8093CF019093D001A093D101B093D201809149
:201F4000A1020E94F00221E0892B09F020E01092A002211107C080919E0290919F02892B38
:201F600009F468C08FB7F8948090980290909902A0909A02B0909B028FBF80919C0290913E
:201F80009D028401081B190BC80140919E0250919F024930510548F5FA01EC5CFF4F0C94DD
:201FA0005F1530E039C0222301F10431110504F521E030E031C02223F1F08C329140F4F48A
:201FC00017C021111EC00A3F1105F4F025E030E023C02223C9F004311105CCF412C02223BF
:201FE000C9F015C02223B1F009C020E030E014C022E030E011C023E030E00EC028E030E0E4
:202000000BC026E030E008C024E030E005C027E030E002C029E030E02417350759F090926A
:202020009D0280929C0230939F0220939E0281E08093A0028091CE01813009F4CAC038F044
:20204000823009F4D7C0833009F4ABC1B7C18091A002882359F080919E0290919F028530D7
:20206000910509F4B3C1089709F4B3C18091CF019091D001A091D101B091D2014091CA01C3
:202080005091CB016091CC017091CD018C019D01041B150B260B370B083C11052105310573
:2020A00008F48CC18093CA019093CB01A093CC01B093CD010E94F503D092B402C092B30240
:2020C0001092D8021092D90288E891E00E94B40C6091C6017091C7018091C8019091C9017E
:2020E00087012091E90247E00E94B7128DE599E09093AA028093A902A70160E082E00E94C6
:202100000C0D1092D80282E08093D90284E891E00E94B40C8091C501882319F081E080939C
:20212000B8026091C1017091C2018091C3019091C40187012091F30248E00E94B7128DE580
:2021400099E09093AA028093A902A70163E080E00E940C0D1092B8021092D80286E0809322
:20216000D9028DE791E00E94B40C6091EF027091F0028091F1029091F2028E01065F1F4FED
:2021800023E045E00E94B7126091EB027091EC028091ED029091EE02095F1F4F22E044E0D2
:2021A0000E94B7121092D80287E08093D9028BE791E00E94B40CCE010A960E94D50C87E73E
:2021C00091E00E94B40CC8010E94D50C84E791E0E5C08091A002882309F4F0C080919E02A3
:2021E00090919F028330910509F4FBC0099709F0E5C0F7C08091A002882359F080919E02CF
:2022000090919F028530910509F4F5C0089709F4F5C08091CF019091D001A091D101B09197
:20222000D2014091CA015091CB016091CC017091CD018C019D01041B150B260B370B083CD4
:2022400011052105310508F4B9C08093CA019093CB01A093CC01B093CD010E94F503D092BD
:20226000B402C092B3021092D8021092D9028EE991E00E94B40C6091C6017091C7018091CC
:20228000C8019091C9018E01065F1F4F22E046E00E94B712C8010E94D50C8CE991E00E94C1
:2022A000B40C1092D80282E08093D90287E991E00E94B40C6091DB0270E080E090E04AE037
:2022C0000E94BC0D84E991E00E94B40C8091C501882319F081E08093B8026091C1017091E6
:2022E000C2018091C3019091C40187012091F30248E00E94B7128DE599E09093AA028093D2
:20230000A902C7010E9467091092B8021092D80285E08093D9020E94D10E0E949B0C4C01F6
:20232000990FAA08BB08B7FE0CC08DE20E94B10D66277727CB01681979098A099B094AE0D5
:2023400003C04AE0C501B4010E94BC0D1092D80286E08093D9020E94D10E6091BD017091A9
:20236000BE018091BF019091C00142E00E94FD0D80E991E00E94B40C1092D80287E08093EB
:20238000D9026091B9017091BA018091BB019091BC0142E00E94FD0D8BE891E00E94B40C3C
:2023A0000DC08091A002882349F080919E0290919F028330910551F1099741F180E090E019
:2023C000892B09F4A9CD0E940000A2CD0E94150A4DCE61E08DE00E94610581E08093CE01F0
:2023E00045CE60E08DE00E9461050E94D30382E08093CE01E3CF0E94150A0BCF61E08DE05E
:202400000E94610583E08093CE0103CF60E08DE00E9461050E94D3031092CE01CFCFCF93FF
:2024200010928F0210928E0288EE93E0A0E0B0E08093900290939102A0939202B093930244
:2024400089E691E090938D0280938C028AE097EDA3E2BCE38093E0029093E102A093E20225
:20246000B093E30282E08093E4024FE652E163E87BE34093E5025093E6026093E702709364
:20248000E80223E030E03093EA022093E90290E49093DA028093DB021092A6021092A502FC
:2024A0001092D8021092D9028BE791E09093A4028093A3021092A8021092A7021092B802CC
:2024C0001092BB021092BC028FEF8093B9028093BE02E2ECF2E09FEF86E18E0FCFEF91930A
:2024E0008E13FCCF89E098E09093AC028093AB0282E099E09093AE028093AD0285E993E0AD
:202500009093B0028093AF028DEC95E09093B2028093B10220E030E040E069E087EA92E03B
:202520000E940908C093CD02C093CE02C093CF022FB7F8948091980290919902A0919A02D9
:20254000B0919B022FBF90939D0280939C0210929F0210929E021092A00282E090E090937E
:20256000A2028093A10262E0CF910C949105EF920F931F93CF93DF93E80147FD02C034E07D
:2025800001C034E1E42F440FFF0BF7FF03C0F195E195F109E32E022F2E2FAE010E94D7126D
:2025A000CE01DF91CF911F910F91EF9008954F925F926F927F929F92AF92BF92CF92DF9297
:2025C000EF92FF920F931F93CF93DF93CDB7DEB729970FB6F894DEBF0FBECDBF6A01122FF5
:2025E000B02E2BE3201720F0FF24F394F00E02C0BCE3FB2E0F2D27E0AE014F5F5F4F0E9486
:202600006514AC018981982F9970913031F0E1FC06C0E0FE06C090E205C09DE203C09BE29B
:2026200001C090E0EE2DE07183FF3CC0911102C083E001C084E0811718F4212F281B01C09B
:2026400020E0E1110BC0F601822F30E2882319F031938150FBCFC20ED11C20E0992329F05E
:20266000D6019C93F60131966F01C6010396E2FE0AC03EE4D6013C9341E411964C93119701
:2026800012963C9306C03EE6F601308341E641833283FC01322F40E2332309F442C04193E6
:2026A0003150FACF82FF44C0911102C083E001C084E0811718F4212F281B01C020E0E11175
:2026C0000BC0F601822F30E2882319F031938150FBCFC20ED11C20E0992329F0D6019C93CA
:2026E000F60131966F01C6010396E2FE0BC039E4D6013C933EE411963C93119736E41296DC
:202700003C9307C039E6F60130833EE6318336E63283FC01322F40E2332319F0419331507D
:20272000FBCFFC01E20FF11D10828EEF9FEFB7C0F1E0911101C0F0E06F2F70E01416150688
:2027400024F49A012F5F3F4F02C021E030E0260F371FBB2029F06B2D70E06F5F7F4F02C012
:2027600060E070E0260F371F612F70E0261737071CF4121B212F01C020E03E2D387159F434
:20278000D601322F60E2332319F06D933150FBCFC20ED11C20E0FF2331F0D6019C93B60158
:2027A0006F5F7F4F6B01E1110BC0F601922F30E3992319F031939150FBCFC20ED11C20E098
:2027C0009F2D940F3A81782F7071A72E84FF03C0313309F49150191624F4993018F098E05A
:2027E00001C091E0E42F852F57FF02C0E0E080E06E2F782FE0E0F0E0AEE29A2E3A01691ABE
:2028000071082A01461A570A0B2D10E01195019511096F3F8FEF780729F4D6019C92C60141
:2028200001966C014617570784F0661677066CF47F01E40CF51CA1E0B0E0AC0FBD1FEA0EEB
:20284000FB1ED7011196BC9002C090E3B92E615071093196C60101967C016017710724F0A8
:20286000D601BC926C01D5CF6417750741F4363320F4353321F4A11002C081E3B82EF60148
:20288000B082F701822F90E2882319F091938150FBCFF701E20FF11D108280E090E0299660
:2028A0000FB6F894DEBF0FBECDBFDF91CF911F910F91FF90EF90DF90CF90BF90AF909F9018
:2028C0007F906F905F904F900895283008F027E03327DA01990F311D87FD9160009661058C
:2028E000710539F432602E5F3D9330E32A95E1F708959F3F30F080387105610509F03C5FD9
:202900003C5F3D93913008F08068911DDF93CF931F930F93FF92EF92192F987F9695E92F21
:2029200096959695E90FFF27EC52FF4F99273327EE24FF24A701E70105900894079428F4D0
:20294000360FE71EF81E491F511D660F771F881F991F0694A1F70590079428F4E70EF81E4E
:20296000491F561FC11D770F881F991F661F0694A1F70590079428F4F80E491F561FC71FEB
:20298000D11D880F991F661F771F0694A1F70590079420F4490F561FC71FD81F990F661F92
:2029A000771F881F0694A9F784911095177041F0D695C79557954795F794E7941A95C1F732
:2029C000EAE7F0E068941590159135916591959105907FE27395E118F10A430B560BC90BB8
:2029E000D009C0F7E10CF11E431F561FC91FD01D7EF4703311F48A95E6CFE894015030F0C4
:202A0000080F0AF40027021708F4202F2395022F7A3328F079E37D932A95E9F710C07D937D
:202A20002A9589F6069497956795379517951794E118F10A430B560BC90BD00998F02395E3
:202A40007E9173957A3308F070E37C932013B8F77E9170617D9330F0839571E37D9370E397
:202A60002A95E1F71124EF90FF900F911F91CF91DF91992787FD90950895A1E21A2EAA1BC6
:202A8000BB1BFD010DC0AA1FBB1FEE1FFF1FA217B307E407F50720F0A21BB30BE40BF50BF3
:202AA000661F771F881F991F1A9469F760957095809590959B01AC01BD01CF010895EE0FE9
:202AC000FF1F0590F491E02D09945058BB27AA270E947D150C94F0160E94E21638F00E947B
:202AE000E91620F039F49F3F19F426F40C94DF160EF4E095E7FB0C94D916E92F0E94011746
:202B000058F3BA17620773078407950720F079F4A6F50C9423170EF4E0950B2EBA2FA02D37
:202B20000B01B90190010C01CA01A0011124FF27591B99F0593F50F4503E68F11A16F0404A
:202B4000A22F232F342F4427585FF3CF469537952795A795F0405395C9F77EF41F16BA0B28
:202B6000620B730B840BBAF09150A1F0FF0FBB1F661F771F881FC2F70EC0BA0F621F731FB2
:202B8000841F48F4879577956795B795F7959E3F08F0B0CF9395880F08F09927EE0F979566
:202BA000879508950E94B51608F481E008950E94EB150C94F0160E94E91658F00E94E2162A
:202BC00040F029F45F3F29F00C94D91651110C9424170C94DF160E94011768F39923B1F31B
:202BE000552391F3951B550BBB27AA2762177307840738F09F5F5F4F220F331F441FAA1F15
:202C0000A9F335D00E2E3AF0E0E832D091505040E695001CCAF72BD0FE2F29D0660F771FEE
:202C2000881FBB1F261737074807AB07B0E809F0BB0B802DBF01FF2793585F4F3AF09E3F0D
:202C4000510578F00C94D9160C9424175F3FE4F3983ED4F3869577956795B795F7959F5F41
:202C6000C9F7880F911D9695879597F90895E1E0660F771F881FBB1F621773078407BA074F
:202C800020F0621B730B840BBA0BEE1F88F7E09508950E94091788F09F5798F0B92F9927D7
:202CA000B751B0F0E1F0660F771F881F991F1AF0BA95C9F714C0B13091F00E942317B1E075
:202CC00008950C942317672F782F8827B85F39F0B93FCCF3869577956795B395D9F73EF42D
:202CE00090958095709561957F4F8F4F9F4F0895E89409C097FB3EF490958095709561952A
:202D00007F4F8F4F9F4F9923A9F0F92F96E9BB279395F695879577956795B795F111F8CF4F
:202D2000FAF4BB0F11F460FF1BC06F5F7F4F8F4F9F4F16C0882311F096E911C0772321F0B7
:202D40009EE8872F762F05C0662371F096E8862F70E060E02AF09A95660F771F881FDAF754
:202D6000880F9695879597F90895990F0008550FAA0BE0E8FEEF16161706E807F907C0F0E2
:202D800012161306E407F50798F0621B730B840B950B39F40A2661F0232B242B252B21F4A9
:202DA00008950A2609F4A140A6958FEF811D811D089597F99F6780E870E060E008959FEF1D
:202DC00080EC089500240A941616170618060906089500240A941216130614060506089550
:202DE000092E0394000C11F4882352F0BB0F40F4BF2B11F460FF04C06F5F7F4F8F4F9F4F8F
:202E0000089557FD9058440F551F59F05F3F71F04795880F97FB991F61F09F3F79F0879559
:202E20000895121613061406551FF2CF4695F1DF08C0161617061806991FF1CF8695710582
:202E4000610508940895E894BB2766277727CB0197F908950E94B51608F48FEF08950E942B
:202E600042170C94F0160E94E21638F00E94E91620F0952311F00C94D9160C94DF161124CE
:202E80000C9424170E94011770F3959FC1F3950F50E0551F629FF001729FBB27F00DB11D5A
:202EA000639FAA27F00DB11DAA1F649F6627B00DA11D661F829F2227B00DA11D621F739FA3
:202EC000B00DA11D621F839FA00D611D221F749F3327A00D611D231F849F600D211D822F0F
:202EE000762F6A2F11249F5750409AF0F1F088234AF0EE0FFF1FBB1F661F771F881F9150F1
:202F00005040A9F79E3F510580F00C94D9160C9424175F3FE4F3983ED4F38695779567953F
:202F2000B795F795E7959F5FC1F7FE2B880F911D9695879597F908950E94B516880B990B01
:202F4000089581E090E0F8940C94A617F894FFCF1815A015C019FF1815A115C819FF181516
:202F6000AE19FF1815AF19FF1815AE15D5168015A8163F15D316001540158D1614152016C0
:202F80000015A115C815DA1612158116CF15D916F115DB1640152E15A415A619FF000114ED
:202FA0000A6464323200127A0000042896100800008000400000000000510721079203F5AB
:202FC0000619070507F6060000000020056903920391036E616E00696E66006F7666000044
:202FE000FFFFFFFFFFFFFFFFFFFFFFFFFFFFFFFFFFFFFFFFFFFFFFFFFFFFFFFFFFFFFFFFF1
:20300000880F97FB991F61F09F3F79F087950895121613061406551FF2CF4695F1DF08C07B
:20302000161617061806991FF1CF86957105610508940895E894BB2766277727CB0197F99C
:2030400008950E94AC1708F48FEF08950E9439180C94E7170E94D91738F00E94E01720F063
:20306000952311F00C94D0170C94D61711240C941B180E94F81770F3959FC1F3950F50E0AB
:20308000551F629FF001729FBB27F00DB11D639FAA27F00DB11DAA1F649F6627B00DA11D9A
:2030A000661F829F2227B00DA11D621F739FB00DA11D621F839FA00D611D221F749F33271C
:2030C000A00D611D231F849F600D211D822F762F6A2F11249F5750409AF0F1F088234AF0BB
:2030E000EE0FFF1FBB1F661F771F881F91505040A9F79E3F510580F00C94D0170C941B180B
:203100005F3FE4F3983ED4F3869577956795B795F795E7959F5FC1F7FE2B880F911D9695D7
:20312000879597F908950E94AC17880B990B089581E090E0F8940C949D18F894FFCF000001
:2031400000000000000000000000000000000000000000000000000000000000000000006F
:203160000000000000000000000000000000000000000000000000000000000000808080CF
:203180000000000000000000000000000000008080C0C000000000000000000000000000AF
:2031A00000000000000000000000000000000000000000000000000000000000000000000F
:2031C00000000000000000000000000000000000000080C0E0F0F8FCF8E000000000000013
:2031E0000000000000000000000000808080808000808000000000808080808000FFFFFFD2
:20320000000000008080808000008080000080FFFF80800080800080808080008080000030
:20322000000000808000008C8E84000080F8F8F88000000000000000000000000000F0F028
:20324000F0F0F0F0F0F0F0F0F0F0E0E0C08000E0FCFEFFFFFF7FFFFFFFFFFF0000000000BD
:20326000000000000000000000FEFFC70101010183FFFF00007CFEC70101010183FFFFFF40
:203280000038FEC78301010183C7FFFF000001FFFF010100FFFF0701010100007FFF80005C
:2032A0000000FFFF7F0000FFFFFF000001FFFFFF0100000000000000000000000000030F83
:2032C0003F7F7FFFFFFFFFFFFFFFE7C7C78F8F9FBFFFFFC3C0F0FFFFFFFFFFFCFCFCFCFC6F
:2032E000FCFCFCF8F8F0F0E0C0000103030303030103030000000001030303030101030140
:20330000000000010303030301010303000000030300000003030000000000000001030385
:20332000030303010000000103010000000303010000000000000000000000000000000077
:203340000000D710A7100606110D350D210D120D000000000611DA0506060506F30F0A05F8
:203360000305DB04F704EB040B05DA04921091103D0D970E0104E3036C030D0300010307E7
:203380000F1F3F7F0080C0E0F0F8FCFE0D0A006E616E00696E66006F76660000FFFFFFFF67
:2033A000FFFFFFFFFFFFFFFFFFFFFFFFFFFFFFFFFFFFFFFFFFFFFFFFFFFFFFFFFFFFFFFF2D
:2033C000FFFFFFFFFFFFFFFFFFFFFFFFFFFFFFFFFFFFFFFFFFFFFFFFFFFFFFFFFFFFFFFF0D
:2033E000FFFFFFFFFFFFFFFFFFFFFFFFFFFFFFFFFFFFFFFFFFFFFFFFFFFFFFFFFFFFFFFFED
:20340000FFFFFFFFFFFFFFFFFFFFFFFFFFFFFFFFFFFFFFFFFFFFFFFFFFFFFFFFFFFFFFFFCC
:203800000C94341C0C94511C0C94511C0C94511C0C94511C0C94511C0C94511C0C94511C5D
:203820000C94511C0C94511C0C94511C0C94511C0C94511C0C94511C0C94511C0C94511C20
:203840000C94511C0C94511C0C94511C0C94511C0C94511C0C94511C0C94511C0C94511C00
:203860000C94511C0C94511C11241FBECFEFD4E0DEBFCDBF11E0A0E0B1E0E4EAFFE302C00D
:2038800005900D92A230B107D9F712E0A2E0B1E001C01D92AD30B107E1F70E94361D0C9423
:2038A000D01F0C94001C982F9595959595959595905D8F708A307CF0282F295A8091C00031
:2038C00085FFFCCF9093C6008091C00085FFFCCF2093C6000895282F205DF0CF982F80910F
:2038E000C00085FFFCCF9093C6000895EF92FF920F931F93EE24FF2487018091C00087FDBB
:2039000017C00894E11CF11C011D111D81E4E81682E4F8068FE0080780E0180770F3E09146
:203920000401F091050109958091C00087FFE9CF8091C6001F910F91FF90EF9008950E94DA
:20394000761C982F8091C00085FFFCCF9093C60091362CF490330CF09053892F089597553B
:20396000892F08951F930E949F1C182F0E949F1C1295107F810F1F910895882351F0982F79
:2039800091508091C00087FFFCCF8091C6009923B9F708951F93182F0E94761C803249F02C
:2039A000809103018F5F809303018530C1F01F9108958091C00085FFFCCF84E18093C600DC
:2039C0008091C00085FFFCCF1093C6008091C00085FFFCCF80E18093C6001F910895E09146
:2039E0000401F091050109951F9108950E94761C803241F0809103018F5F8093030185306A
:203A000081F008958091C00085FFFCCF84E18093C6008091C00085FFFCCF80E18093C600E0
:203A20000895E0910401F09105010995089510920A028823D1F090E040E951E02D9A28EEF0
:203A400033E0FA013197F1F721503040D1F72D9828EE33E0FA013197F1F721503040D1F7BD
:203A60009F5F981758F380930A0208953F924F925F926F927F928F929F92AF92BF92CF9298
:203A8000DF92EF92FF920F931F93CF93DF93000083E38093C4001092C50088E18093C1009A
:203AA00086E08093C2005098589A259A81E00E94171D44E1F42E3EE1E32E24E9D22E96E001
:203AC000C92E80E1B82EAA24A39401E4902E16E5812EB2E57B2EA0E26A2EF9E45F2EE3E5CA
:203AE0004E2E70E5372E0E94761C8033B1F1813309F441C0803409F479C0813409F48CC06D
:203B0000823471F1853409F47BC0803531F1823521F1813511F1853509F48DC0863509F488
:203B20009DC0843609F4AEC0843709F41BC1853709F485C1863709F47AC0809103018F5F79
:203B400080930301853079F6E0910401F091050109950E94761C803351F60E94F61CC3CF1B
:203B600093E18091C00087FFFCCF8091C6009923A1F39150F6CF0E94761C8032F1F6809104
:203B8000C00085FFFCCFF092C6008091C00085FFFCCF9092C6008091C00085FFFCCF809294
:203BA000C6008091C00085FFFCCF7092C6008091C00085FFFCCF6092C6008091C00085FF2A
:203BC000FCCF5092C6008091C00085FFFCCF4092C6008091C00085FFFCCF3092C600809101
:203BE000C00085FFFCCFB092C6007DCF0E94761C863808F4B2CF0E94761C0E94F61C73CFC9
:203C000094E08091C00087FFFCCF8091C600992309F4A3CF9150F5CF0E94761C8038D1F0BA
:203C2000813861F1823809F499C0883979F080E00E94CA1C58CF0E94761C809306010E9440
:203C4000761C809307010E94F61C4DCF83E00E94CA1C49CF82E00E94CA1C45CF0E94761CB2
:203C6000803309F486C192E08091C00087FFFCCF8091C6009923D9F29150F6CF81E00E94B2
:203C8000CA1C31CF0E94761C809309020E94761C8093080280910C028E7F80930C020E94AC
:203CA000761C853429F480910C02816080930C028091080290910902892B89F000E010E037
:203CC0000E94761CF801E85FFE4F80830F5F1F4F80910802909109020817190788F30E94A1
:203CE000761C803209F029CF80910C0280FFD1C04091060150910701440F551F50930701ED
:203D000040930601A0910802B09109021097C9F0E8E0F1E09A01BD016E0F7F1FF999FECF76
:203D200032BD21BD819180BDFA9AF99A2F5F3F4FE617F70799F74A0F5B1F50930701409308
:203D400006018091C00085FFFCCFF092C6008091C00085FFFCCFB092C600C5CE80E10E9436
:203D6000CA1CC1CE0E94761C809309020E94761C809308028091060190910701880F991F9B
:203D800090930701809306010E94761C853409F47AC080910C028E7F80930C020E94761C39
:203DA000803209F0A0CE8091C00085FFFCCFF092C600A0910802B09109021097B9F1809199
:203DC0000C02182F1170082F0270E0910601F09107019F012F5F3F4FB90140E050E0112369
:203DE000B1F4002339F494918091C00085FFFCCF9093C6004F5F5F4FCB010196F9014A1786
:203E00005B0780F4BC012F5F3F4F112351F3F999FECFF2BDE1BDF89A90B58091C00085FFA3
:203E2000FCCFE6CF70930701609306018091C00085FDD9CE8091C00085FFF8CFD4CE0E94A3
:203E4000761C803209F079CE8091C00085FFFCCFF092C6008091C00085FFFCCFE092C6001E
:203E60008091C00085FFFCCFD092C6008091C00085FFFCCFC092C6008091C00085FFFCCFA2
:203E8000B092C60030CE80910C02816080930C0285CF809107018823880F880B8A218093FB
:203EA0000B028091060190910701880F991F90930701809306018091080280FF09C08091AC
:203EC00008029091090201969093090280930802F894F999FECF1127E0910601F0910701A6
:203EE000C8E0D1E08091080290910902103091F40091570001700130D9F303E0009357003A
:203F0000E8950091570001700130D9F301E100935700E895099019900091570001700130B9
:203F2000D9F301E000935700E8951395103498F011270091570001700130D9F305E00093F3
:203F40005700E8950091570001700130D9F301E100935700E8953296029709F0C7CF1030BE
:203F600011F00296E5CF11248091C00085FFE9CEECCE0E94761C0E94761C182F0E94761C16
:203F8000112351F0113021F086E00E94CA1CABCD84E90E94CA1CA7CD8EE10E94CA1CA3CD24
:063FA000F894FFCF800041
:00000001FF
