:100000000C945C000C946E000C946E000C946E00CA
:100010000C946E000C946E000C946E000C946E00A8
:100020000C946E000C946E000C946E000C946E0098
:100030000C946E000C946E000C946E000C946E0088
:100040000C9434010C946E000C946E000C946E00B1
:100050000C946E000C946E000C946E000C946E0068
:100060000C946E000C946E00000000002400270029
:100070002A0000000000250028002B0004040404CE
:100080000404040402020202020203030303030342
:10009000010204081020408001020408102001021F
:1000A00004081020000000080002010000030407FB
:1000B000000000000000000011241FBECFEFD8E0B8
:1000C000DEBFCDBF21E0A0E0B1E001C01D92A930AC
:1000D000B207E1F70E947E010C940F020C9400001D
:1000E00090E0FC01EC55FF4F3491FC01E057FF4FCD
:1000F0002491FC01E458FF4FE491EE2309F43BC046
:10010000332339F1333091F038F43130A9F0323003
:1001100001F584B58F7D12C0373091F03830A1F0F1
:100120003430B9F4809180008F7D03C080918000CD
:100130008F77809380000DC084B58F7784BD09C010
:100140008091B0008F7703C08091B0008F7D809345
:10015000B000F0E0EE0FFF1FEE58FF4FA591B491F5
:100160008FB7F894EC91611103C020952E2301C044
:100170002E2B2C938FBF08953FB7F89480910501E3
:1001800090910601A0910701B091080126B5A89BA6
:1001900005C02F3F19F00196A11DB11D3FBFBA2F19
:1001A000A92F982F8827820F911DA11DB11DBC0179
:1001B000CD0142E0660F771F881F991F4A95D1F73E
:1001C00008958F929F92AF92BF92CF92DF92EF925B
:1001D000FF926B017C010E94BC004B015C01C114C9
:1001E000D104E104F104F1F00E94BC00DC01CB0178
:1001F00088199909AA09BB09883E9340A105B10550
:1002000070F321E0C21AD108E108F10888EE880EE7
:1002100083E0981EA11CB11CC114D104E104F104B7
:1002200019F7DDCFFF90EF90DF90CF90BF90AF90A8
:100230009F908F900895CF93DF93EC0161E08DE064
:100240000E94700068EC70E080E090E00E94E100A5
:1002500060E08DE00E947000BE01DD0F880B990BFD
:10026000DF91CF910C94E1001F920F920FB60F9285
:1002700011242F933F938F939F93AF93BF938091BC
:10028000010190910201A0910301B091040130910C
:10029000000123E0230F2D3720F40196A11DB11D8D
:1002A00005C026E8230F0296A11DB11D2093000171
:1002B0008093010190930201A0930301B093040184
:1002C0008091050190910601A0910701B09108016C
:1002D0000196A11DB11D8093050190930601A09385
:1002E0000701B0930801BF91AF919F918F913F910A
:1002F0002F910F900FBE0F901F901895789484B592
:10030000826084BD84B5816084BD85B5826085BD11
:1003100085B5816085BD80916E00816080936E009F
:100320001092810080918100826080938100809191
:100330008100816080938100809180008160809342
:1003400080008091B10084608093B1008091B00002
:1003500081608093B00080917A00846080937A00FD
:1003600080917A00826080937A0080917A00816027
:1003700080937A0080917A00806880937A0010924E
:10038000C100EDE9F0E02491E9E8F0E084918823F0
:1003900099F090E0880F991FFC01E859FF4FA59153
:1003A000B491FC01EE58FF4F859194918FB7F8946A
:1003B000EC91E22BEC938FBFC0E0D0E088EC90E0B2
:1003C0000E941B018CE291E00E941B0184E690E0F8
:1003D0000E941B0184E690E00E941B0184EF91E0E3
:1003E0000E941B0184E690E00E941B0184E690E0DD
:1003F0000E941B0184E690E00E941B0184EF91E0C3
:100400000E941B0184E690E00E941B0188EE93E0AD
:100410000E941B01209791F20E940000CFCFF89418
:10042000FFCFFFFFFFFFFFFFFFFFFFFFFFFFFFFF0C
:10043000FFFFFFFFFFFFFFFFFFFFFFFFFFFFFFFFCC
:10044000FFFFFFFFFFFFFFFFFFFFFFFFFFFFFFFFBC
:10045000FFFFFFFFFFFFFFFFFFFFFFFFFFFFFFFFAC
:10046000FFFFFFFFFFFFFFFFFFFFFFFFFFFFFFFF9C
:10047000FFFFFFFFFFFFFFFFFFFFFFFFFFFFFFFF8C
:1004800010E00F5F1F4F0F731127E02E8C8DE812C5
:100490000CC00FB607FCFACFE889F989808185FF87
:1004A000F5CFCE010E940B02F1CF8B8DFE01E80F3C
:1004B000F11DE35AFF4FF0820B8FEA89FB8980819F
:1004C000806207C0EE89FF896083E889F9898081AD
:1004D0008064808381E090E0DF91CF911F910F9144
:1004E000FF90EF900895CF93DF93EC01888D8823E0
:1004F000C9F0EA89FB89808185FD05C0A889B98991
:100500008C9186FD0FC00FB607FCF5CF808185FF6B
:10051000F2CFA889B9898C9185FFEDCFCE010E94D9
:100520000B02E7CFDF91CF91089580E090E0892B17
:1005300029F00E94010281110C94000008950E948C
:1005400035066115710579F0FB0101900020E9F78E
:100550003197AF01461B570BDC01ED91FC910280F6
:10056000F381E02D099480E090E008951F920F92AE
:100570000FB60F9211242F933F934F935F936F9376
:100580007F938F939F93AF93BF93EF93FF93E091EC
:100590007D01F0917E01309709F451C0968DA685BA
:1005A000B785858591FF04C09C91892329F447C0B4
:1005B0009C91892309F043C0A389B4899C918589C2
:1005C000809589238C93868997890197F1F7608DAF
:1005D000718DA685B785558538E020E0CB01019760
:1005E000F1F7822F90E095958795282F4C91452320
:1005F00009F02068315091F7868D81FD209580911A
:100600007B0190E001968F73992730917C01381718
:1006100049F0A0917B01B0E0A55CBE4F2C93809384
:100620007B0103C0868D8160868F828D938D0197BB
:10063000F1F7A389B4899C918589892B8C93FF91CB
:10064000EF91BF91AF919F918F917F916F915F914A
:100650004F913F912F910F900FBE0F901F901895C3
:100660001F920F920FB60F9211242F933F938F93E7
:100670009F93AF93BF938091370190913801A091E0
:100680003901B0913A013091360123E0230F2D3723
:1006900020F40196A11DB11D05C026E8230F029686
:1006A000A11DB11D2093360180933701909338012D
:1006B000A0933901B0933A018091320190913301B6
:1006C000A0913401B09135010196A11DB11D809317
:1006D000320190933301A0933401B0933501BF915F
:1006E000AF919F918F913F912F910F900FBE0F90DF
:1006F0001F9018951F920F920FB60F9211242F93EF
:100700003F934F935F936F937F938F939F93AF9399
:10071000BF93EF93FF938FE791E00E940B02FF914D
:10072000EF91BF91AF919F918F917F916F915F9169
:100730004F913F912F910F900FBE0F901F901895E2
:100740001F920F920FB60F9211242F938F939F93A6
:10075000EF93FF93E0918F01F09190018081E09100
:100760009501F091960182FD12C0908180919801CF
:100770008F5F8F7320919901821751F0E09198015A
:10078000F0E0E158FE4F958F8093980101C0808181
:10079000FF91EF919F918F912F910F900FBE0F902E
:1007A0001F901895CF93DF931092820110928101D0
:1007B00088EE93E0A0E0B0E0809383019093840101
:1007C000A0938501B093860124E031E0309380014D
:1007D00020937F0125EC30E030938C0120938B0136
:1007E00024EC30E030938E0120938D0120EC30E03A
:1007F0003093900120938F0121EC30E030939201EF
:100800002093910122EC30E03093940120939301E6
:1008100026EC30E0309396012093950110929801D8
:100820001092990110929A0110929B0110921F024E
:1008300010921E028093200290932102A093220224
:10084000B093230286E191E090931D0280931C02F5
:10085000109233021092320210923502109234023A
:10086000109237021092360210923902109238021A
:1008700060913A026E7F6D7F60933A026695617077
:1008800081E0682789E00E948D00E7EBF0E0249189
:10089000E3EAF0E08491882399F090E0880F991FB3
:1008A000FC01EA57FF4FA591B491FC01E458FF4FBA
:1008B000859194918FB7F894EC91E22BEC938FBFD4
:1008C000E7EBF0E0E491E0932C02E3EAF0E0E4915E
:1008D000F0E0EE0FFF1FE458FF4F85919491909345
:1008E0002E0280932D02E6EBF0E02491E2EAF0E0A4
:1008F00084918823C1F090E0880F991FFC01EA578A
:10090000FF4FC591D491FC01E458FF4FA591B491DC
:100910009FB7F8948881E22FE0958E2388838C918D
:10092000E823EC939FBF80913A0281FD04C061E00F
:1009300088E00E948D0088E080932802E6EBF0E0DA
:10094000E491E0932902E2EAF0E0E491F0E0EE0FB6
:10095000FF1FE057FF4F8591949190932B02809356
:100960002A02DF91CF910895789484B5826084BD86
:1009700084B5816084BD85B5826085BD85B58160A3
:1009800085BD80916E00816080936E001092810021
:1009900080918100826080938100809181008160DC
:1009A000809381008091800081608093800080919D
:1009B000B10084608093B1008091B0008160809329
:1009C000B00080917A00846080937A0080917A00F0
:1009D000826080937A0080917A00816080937A00AF
:1009E00080917A00806880937A001092C100E09133
:1009F0008F01F091900182E08083E0918B01F09172
:100A00008C011082E0918D01F0918E018FEC80833A
:100A100010929701E0919301F091940186E0808318
:100A2000E0919101F0919201808180618083E09159
:100A30009101F0919201808188608083E091910121
:100A4000F0919201808180688083E0919101F09122
:100A5000920180818F7D808364E271E08FE791E075
:100A60000E94A1026BE271E08FE791E00E94A10277
:100A70001092370210923602109235021092340210
:100A800010923302109232028DE991E09093390274
:100A90008093380290912802963108F057C02DEBD0
:100AA00030E030933302209332022BE931E030936F
:100AB0003502209334022CE231E030933702209348
:100AC000360220916800983050F031E09E3008F4F2
:100AD00030E081E001C0880F3A95EAF701C084E078
:100AE000822B80936800983038F09E3040F0963129
:100AF00048F020E030E008C02DE630E005C02BE6ED
:100B000030E002C02CE630E03093300220932F0218
:100B1000983030F481E001C0880F9A95EAF70EC052
:100B2000292F30E09E3018F42850310902C02E5091
:100B3000310981E001C0880F2A95EAF780933102DC
:100B400080913802909139020197F1F78091360235
:100B500090913702892B21F180917D0190917E0146
:100B600022E08C319207E1F0009711F00E947F01A2
:100B700080913A028E7F80933A0210927B0110920C
:100B80007C018CE192E090937E0180937D01E09165
:100B90002F02F0913002908180913102892B808365
:100BA0006EE271E08CE192E00E94A1026BE271E0E2
:100BB0008CE192E00E94A1028CE192E00E94460149
:100BC000892B49F08CE192E00E945E01682F8FE74B
:100BD00091E00E942C028FE791E00E94F501892BA1
:100BE00049F08FE791E00E94D301682F8CE192E0F9
:100BF0000E94F2000E949502DFCF86E191E090937F
:100C00001D0280931C028CE192E00C947F0197FB03
:100C1000072E16F4009407D077FD09D00E941B061A
:100C200007FC05D03EF4909581959F4F08957095EF
:100C300061957F4F0895AA1BBB1B51E107C0AA1FF6
:100C4000BB1FA617B70710F0A61BB70B881F991F6D
:100C50005A95A9F780959095BC01CD010895EE0FA6
:100C6000FF1F0590F491E02D099481E090E0F89445
:100C70000C943A0610E0C2E6D0E004C0FE010E94E7
:100C80002F062196C336D107C9F7F894FFCF00008D
:100C900000002C029501C4017302F501D301E701A4
:100CA00000000000F2009501C101F10046015E0163
:100CB000D900537461727421000D0A004154000080
:100CC000FFFFFFFFFFFFFFFFFFFFFFFFFFFFFFFF34
:100CD000FFFFFFFFFFFFFFFFFFFFFFFFFFFFFFFF24
:100CE000FFFFFFFFFFFFFFFFFFFFFFFFFFFFFFFF14
:100CF000FFFFFFFFFFFFFFFFFFFFFFFFFFFFFFFF04
:100D0000633609F483CF6437B1F4E881F981CF0108
:100D100002969983888380819181019749F469E4DF
:100D200071E080E591E0DF91CF911F910F91D2CBDF
:100D30006BE471E0F6CF6435B1F4E881F981CF015D
:100D400002969983888380819181019719F46AE9D9
:100D500070E002C064E970E080E591E0DF91CF913E
:100D60001F910F9194CBDF91CF911F910F91089517
:100D7000CF92DF92EF92FF920F931F93CF93DF9367
:100D800000D0CDB7DEB77C015A8349838B010F5F5A
:100D90001F4FFB0164916623C1F0653269F468015D
:100DA000FFEFCF1ADF0AF8016491AE014F5F5F4F8A
:100DB000C7010BDF860103C080E591E08CDBC80131
:100DC0000196F80164918C01E6CF0F900F90DF91AE
:100DD000CF911F910F91FF90EF90DF90CF900895EA
:100DE000A1E21A2EAA1BBB1BFD010DC0AA1FBB1F2F
:100DF000EE1FFF1FA217B307E407F50720F0A21BA1
:100E0000B30BE40BF50B661F771F881F991F1A940D
:100E100069F760957095809590959B01AC01BD0137
:100E2000CF010895EE0FFF1F0590F491E02D099476
:100E3000CF93DF938230910510F482E090E0E0914F
:100E40000002F091010220E030E0A0E0B0E0309735
:100E500039F14081518148175907B8F048175907AF
:100E600071F482819381109729F013969C938E934D
:100E700012972CC0909301028093000227C0211585
:100E8000310531F04217530718F0A901DB0101C009
:100E9000EF019A01BD01DF010280F381E02DD7CF80
:100EA00021153105F9F0281B390B2430310580F468
:100EB0008A819B816115710521F0FB0193838283F7
:100EC00004C09093010280930002FE01329644C058
:100ED000FE01E20FF31F8193919322503109398370
:100EE00028833AC02091FE013091FF01232B41F469
:100EF00020910201309103013093FF012093FE0104
:100F000020910001309101012115310541F42DB7E7
:100F10003EB74091040150910501241B350BE0912F
:100F2000FE01F091FF01E217F307A0F42E1B3F0B27
:100F30002817390778F0AC014E5F5F4F241735074B
:100F400048F04E0F5F1F5093FF014093FE018193C5
:100F5000919302C0E0E0F0E0CF01DF91CF910895DE
:100F6000CF93DF93009709F487C0FC013297138277
:100F70001282C0910002D0910102209781F4208159
:100F80003181280F391F8091FE019091FF01821756
:100F9000930779F5F093FF01E093FE016DC0DE0148
:100FA00020E030E0AE17BF0750F412964D915C91EF
:100FB00013979D014115510509F1DA01F3CFB38370
:100FC000A28340815181840F951F8A179B0771F47A
:100FD0008D919C911197840F951F02969183808328
:100FE00012968D919C9113979383828321153105DD
:100FF00029F4F0930102E09300023EC0D901139658
:10100000FC93EE9312974D915D91A40FB51FEA17D3
:10101000FB0779F480819181840F951F0296D90195
:1010200011969C938E938281938113969C938E93B9
:101030001297E0E0F0E08A819B81009719F0FE01B1
:10104000EC01F9CFCE01029628813981820F931FDE
:101050002091FE013091FF012817390769F430977C
:1010600029F4109201021092000202C0138212822F
:10107000D093FF01C093FE01DF91CF910895AEE0C0
:10108000B0E0E4E4F8E091C20D891E8986E08C832B
:101090001A8309838FEF9FE79E838D83AE01475E9E
:1010A0005F4F6F89788DCE01019608D0EF81F8856A
:1010B000E00FF11F10822E96E4E093C2ACE0B0E0A6
:1010C000E3E6F8E064C27C016B018A01FC0117824F
:1010D0001682838181FFB0C1CE0101964C01F701D8
:1010E0009381F60193FD859193FF81916F01882390
:1010F00009F49EC1853239F493FD859193FF819166
:101100006F01853221F4B70190E0B1D1E8CF512CC5
:10111000312C20E02032A0F48B3269F030F48032A0
:1011200059F0833269F420612CC08D3239F080335C
:1011300039F4216026C02260246023C0286021C0C9
:1011400027FD27C030ED380F3A3078F426FF06C06F
:10115000FAE05F9E300D1124532E13C08AE0389EB2
:10116000300D1124332E20620CC08E3221F426FD66
:101170005FC1206406C08C3611F4206802C0883636
:1011800041F4F60193FD859193FF81916F018111E7
:10119000C1CF982F9F7D9554933028F40C5F1F4F3B
:1011A000FFE3F9830DC0833631F0833771F0833567
:1011B00009F057C021C0F801808189830E5F1F4F5D
:1011C00044244394512C540114C03801F2E06F0EB2
:1011D000711CF801A080B18026FF03C0652D70E06E
:1011E00002C06FEF7FEFC5012C8736D12C01830140
:1011F0002C852F77222E16C03801F2E06F0E711C5D
:10120000F801A080B18026FF03C0652D70E002C008
:101210006FEF7FEFC5012C8714D12C012C8520683E
:10122000222E830123FC19C0832D90E04816590615
:10123000A0F4B70180E290E01AD13A94F5CFF5011D
:1012400027FC859127FE81915F01B70190E00FD1C6
:1012500031103A94F1E04F1A51084114510479F7D2
:10126000DEC0843611F0893631F5F80127FF07C05A
:1012700060817181828193810C5F1F4F08C0608102
:101280007181882777FD8095982F0E5F1F4F2F76ED
:10129000B22E97FF09C090958095709561957F4F0C
:1012A0008F4F9F4F2068B22E2AE030E0A40111D169
:1012B000A82EA81843C0853729F42F7EB22E2AE025
:1012C00030E025C0F22FF97FBF2E8F36C1F018F421
:1012D000883579F0ADC0803719F0883721F0A8C083
:1012E0002F2F2061B22EB4FE0DC08B2D8460B82E3E
:1012F00009C024FF0AC09F2F9660B92E06C028E0BF
:1013000030E005C020E130E002C020E132E0F80129
:10131000B7FE07C060817181828193810C5F1F4F8E
:1013200006C06081718180E090E00E5F1F4FA401D4
:10133000D0D0A82EA818FB2DFF77BF2EB6FE0BC06D
:101340002B2D2E7FA51450F4B4FE0AC0B2FC08C0A9
:101350002B2D2E7E05C07A2C2B2D03C07A2C01C09C
:10136000752C24FF0DC0FE01EA0DF11D8081803334
:1013700011F4297E09C022FF06C07394739404C03F
:10138000822F867809F0739423FD12C020FF06C0D7
:101390005A2C731418F4530C5718732C731460F4EC
:1013A000B70180E290E02C8762D073942C85F6CF51
:1013B000731410F4371801C0312C24FF11C0B70189
:1013C00080E390E02C8753D02C8522FF16C021FFAC
:1013D00003C088E590E002C088E790E0B7010CC048
:1013E000822F867851F021FD02C080E201C08BE29D
:1013F00027FD8DE2B70190E03AD0A51430F4B70193
:1014000080E390E034D05A94F8CFAA94F401EA0D26
:10141000F11D8081B70190E02AD0A110F6CF3320D2
:1014200009F45DCEB70180E290E021D03A94F7CF85
:10143000F7018681978102C08FEF9FEF2C96E2E142
:10144000C2C0FC010590615070400110D8F7809532
:1014500090958E0F9F1F0895FC0161507040019080
:101460000110D8F7809590958E0F9F1F08950F93C8
:101470001F93CF93DF93182F092FEB018B8181FDF1
:1014800003C08FEF9FEF20C082FF10C04E815F81AD
:101490002C813D81421753077CF4E881F9819F013B
:1014A0002F5F3F4F39832883108306C0E885F98575
:1014B000812F0995892B29F72E813F812F5F3F4F7F
:1014C0003F832E83812F902FDF91CF911F910F911A
:1014D0000895FA01AA27283051F1203181F1E894CA
:1014E0006F936E7F6E5F7F4F8F4F9F4FAF4FB1E017
:1014F0003ED0B4E03CD0670F781F891F9A1FA11D12
:10150000680F791F8A1F911DA11D6A0F711D811D12
:10151000911DA11D20D009F468943F912AE0269FD7
:1015200011243019305D3193DEF6CF010895462F36
:101530004770405D4193B3E00FD0C9F7F6CF462F17
:101540004F70405D4A3318F0495D31FD4052419380
:1015500002D0A9F7EACFB4E0A6959795879577953D
:101560006795BA95C9F700976105710508959B01C4
:10157000AC010A2E06945795479537952795BA954D
:10158000C9F7620F731F841F951FA01D08952F9226
:101590003F924F925F926F927F928F929F92AF9203
:1015A000BF92CF92DF92EF92FF920F931F93CF9350
:1015B000DF93CDB7DEB7CA1BDB0B0FB6F894DEBFE7
:1015C0000FBECDBF09942A88398848885F846E840D
:1015D0007D848C849B84AA84B984C884DF80EE8057
:1015E000FD800C811B81AA81B981CE0FD11D0FB660
:1015F000F894DEBF0FBECDBFED010895F894FFCF84
:1016000000000202200000000000780080000000BE
:101610000000920098000D0A006E616E00696E660F
:10162000006F7666002E0000000000B40409023846
:1016300004510443049304253031306C75206D73DC
:101640003A20003078003062005400460000FFFF6E
:10165000FFFFFFFFFFFFFFFFFFFFFFFFFFFFFFFF9A
:10166000FFFFFFFFFFFFFFFFFFFFFFFFFFFFFFFF8A
:10167000FFFFFFFFFFFFFFFFFFFFFFFFFFFFFFFF7A
:101680008093FF0184EC90E090930202809301022A
:1016900080EC90E0909304028093030281EC90E050
:1016A000909306028093050282EC90E090930802EA
:1016B0008093070286EC90E090930A0280930902DF
:1016C00010920C0210920D0210920E0210920F0254
:1016D0000895CF92DF92EF92FF920F931F93CF93D3
:1016E000DF937C016A01EB0100E010E00C151D05A1
:1016F00071F06991D701ED91FC910190F081E02D9D
:10170000C7010995892B19F00F5F1F4FEFCFC80153
:10171000DF91CF911F910F91FF90EF90DF90CF90CD
:1017200008956115710581F0DB010D900020E9F746
:10173000AD0141505109461B570BDC01ED91FC9165
:101740000280F381E02D099480E090E00895EF920B
:10175000FF920F931F93CF93DF938C017B01C0E027
:10176000D0E0F701EC0FFD1F6491662359F0F801FA
:10177000A081B181ED91FC91C8010995892B11F0EF
:101780002196EFCFCE01DF91CF911F910F91FF9066
:10179000EF900895DC01ED91FC91DB0114964D91E1
:1017A0005C9115976D917C910280F381E02D0994F5
:1017B000B8CFDC01ED91FC910190F081E02D09940E
:1017C0006EE771E0AECF8F929F92AF92BF92CF92B1
:1017D000DF92EF92FF920F931F93CF93DF93CDB7DA
:1017E000DEB7A1970FB6F894DEBF0FBECDBF7C0168
:1017F000C42EE52FCB01D22E19A221E02D1510F019
:101800002AE0D22E8E010F5D1F4F8D2C912CA12C22
:10181000B12C6C2D7E2FA50194010E9419148C2DE2
:10182000D29E80191124015011098A3014F4805D70
:1018300001C0895CF80180832115310541055105FE
:1018400021F0C22EE32FCA01E4CFB801C70169DF3E
:10185000A1960FB6F894DEBF0FBECDBFDF91CF913A
:101860001F910F91FF90EF90DF90CF90BF90AF90BE
:101870009F908F900895CF92DF92EF92FF920F93F7
:101880001F93CF93DF93EC016A017B012115310592
:1018900079F4E881F9810190F081E02D642FDF91E6
:1018A000CF911F910F91FF90EF90DF90CF9009940F
:1018B0002A303105D9F477FF18C06DE27ADF8C0148
:1018C00044275527BA014C195D096E097F092AE0A2
:1018D000CE0179DF800F911FDF91CF911F910F9182
:1018E000FF90EF90DF90CF9008952AE0B701A60116
:1018F000CE01DF91CF911F910F91FF90EF90DF907C
:10190000CF9061CF9A01AB01662757FD6095762F86
:10191000B2CF2115310541F4DC01ED91FC9101902C
:10192000F081E02D642F09944ECF9A01462F50E0AC
:1019300060E070E0EECF08958230E8F4E82FF0E048
:10194000EE0FFF1FE15FFE4F71836083813041F036
:10195000809169008C7F842B80936900E89A0895B8
:1019600080916900440F551F440F551F837F842BBE
:1019700080936900E99A08951F920F920FB60F9213
:1019800011242F933F934F935F936F937F938F9384
:101990009F93AF93BF93EF93FF93E0910F01F0916B
:1019A00010010995FF91EF91BF91AF919F918F9198
:1019B0007F916F915F914F913F912F910F900FBE4B
:1019C0000F901F9018951F920F920FB60F9211242F
:1019D0002F933F934F935F936F937F938F939F9337
:1019E000AF93BF93EF93FF93E0911101F091120138
:1019F0000995FF91EF91BF91AF919F918F917F9149
:101A00006F915F914F913F912F910F900FBE0F906B
:101A10001F901895FC01808191810C945016CF93F2
:101A2000DF93EC0188819981009711F00E94501694
:101A3000198218821D821C821B821A82DF91CF912B
:101A400008950F931F93CF93DF93EC018B016F5F8A
:101A50007F4F888199810E94DF16009731F099832A
:101A600088831B830A8381E001C080E0DF91CF91EE
:101A70001F910F910895CF93DF93EC018881998195
:101A8000892B29F08A819B818617970758F4CE010C
:101A9000D8DF882341F08C819D81892B19F4E8815E
:101AA000F981108281E0DF91CF910895EF92FF924A
:101AB0000F931F93CF93DF93EC017B018A01BA014F
:101AC000DADF811103C0CE01AADF07C01D830C83BA
:101AD000B701888199810E94BB17CE01DF91CF9118
:101AE0001F910F91FF90EF900895FC0111821082D9
:101AF00013821282158214826115710551F0FB0167
:101B000001900020E9F7AF0141505109461B570BE6
:101B1000CDCF0895EF92FF920F931F93CF93DF9352
:101B2000EC017B018A01BA01A6DF811103C0CE015D
:101B300076DF07C01D830C83B701888199810E94DD
:101B4000A217CE01DF91CF911F910F91FF90EF90DF
:101B50000895CF93DF93EC01FB018617970751F0AF
:101B6000608171816115710521F0448155819EDF8D
:101B700001C055DFCE01DF91CF910895FC011182A4
:101B800010821382128215821482E3CFCF93DF93E7
:101B9000EC016115710559F0FB0101900020E9F796
:101BA000AF0141505109461B570B80DF01C037DFA1
:101BB000CE01DF91CF9108950F931F93CF93DF93C1
:101BC000CDB7DEB7A1970FB6F894DEBF0FBECDBF7D
:101BD0008C01CB01BA01F8011182108213821282AA
:101BE0001582148230E0AE014F5F5F4F0E94C21732
:101BF000BE016F5F7F4FC801C9DFA1960FB6F89491
:101C0000DEBF0FBECDBFDF91CF911F910F91089521
:101C10000F931F93CF93DF9300D0CDB7DEB78C0126
:101C20006115710559F0CB0169837A830E94A91768
:101C3000AC0169817A81C8016DDF01C0F0DEC801A5
:101C40000F900F90DF91CF911F910F910895FC019C
:101C5000118210821382128215821482D9CFEF92E0
:101C6000FF920F931F93CF93DF93EC017B010C81C5
:101C70001D816115710511F480E015C041155105F4
:101C800089F0040F151FB801F6DE8823A9F3288117
:101C900039818C819D81B701820F931F0E94BB17F0
:101CA0001D830C8381E0DF91CF911F910F91FF90F5
:101CB000EF900895CF93DF93EC01FB0144815581B0
:101CC00060817181CCDF811102C0CE01A8DECE011E
:101CD000DF91CF910895CF93DF93EC0161157105EA
:101CE00061F0FB0101900020E9F7AF01415051097B
:101CF000461B570BB4DF811102C0CE0190DECE012E
:101D0000DF91CF9108950895B4D0FDDF0E94C50200
:101D1000C5E5D0E10E9466032097E1F3C6D1FACF72
:101D20001F920F920FB60F9211242F933F938F9310
:101D30009F93AF93BF938091910290919202A09153
:101D40009302B09194023091900223E0230F2D373B
:101D500020F40196A11DB11D05C026E8230F0296AF
:101D6000A11DB11D20939002809391029093920245
:101D7000A0939302B0939402809195029091960261
:101D8000A0919702B09198020196A11DB11D809378
:101D9000950290939602A0939702B0939802BF91F8
:101DA000AF919F918F913F912F910F900FBE0F9008
:101DB0001F9018952FB7F89460919102709192023C
:101DC00080919302909194022FBF08953FB7F894A9
:101DD0008091950290919602A0919702B0919802FD
:101DE00026B5A89B05C02F3F19F00196A11DB11D76
:101DF0003FBF6627782F892F9A2F620F711D811D93
:101E0000911D42E0660F771F881F991F4A95D1F7F1
:101E10000895CF92DF92EF92FF92CF93DF936B0101
:101E20007C01D4DFEB01C114D104E104F10479F0A9
:101E30004FD2CCDF6C1B7D0B683E7340A0F381E07A
:101E4000C81AD108E108F108C851DC4FECCFDF9186
:101E5000CF91FF90EF90DF90CF9008958230910561
:101E600038F0880F991F880F991F05970197F1F790
:101E70000895789484B5826084BD84B5816084BD02
:101E800085B5826085BD85B5816085BDEEE6F0E0F3
:101E9000808181608083E1E8F0E01082808182604F
:101EA0008083808181608083E0E8F0E080818160D0
:101EB0008083E1EBF0E0808184608083E0EBF0E000
:101EC000808181608083EAE7F0E0808184608083A4
:101ED000808182608083808181608083808180684E
:101EE00080831092C10008958E3008F08E50877064
:101EF0002091130190E4299F90011124822B80935B
:101F00007C0080917A00806480937A0080917A00CE
:101F100086FDFCCF809178002091790090E0922B93
:101F20000895833081F028F4813099F08230A1F057
:101F300008958730A9F08830B9F08430D1F48091C9
:101F400080008F7D03C0809180008F778093800018
:101F5000089584B58F7702C084B58F7D84BD0895C0
:101F60008091B0008F7703C08091B0008F7D809307
:101F7000B0000895CF93DF9390E0FC01EF5AFC4F3F
:101F80002491FC01EB59FC4F8491882349F190E0A6
:101F9000880F991FFC01E357FC4FA591B4918D5711
:101FA0009C4FFC01C591D4919FB7611108C0F89472
:101FB0008C91209582238C93888182230AC0623081
:101FC00051F4F8948C91322F309583238C9388812F
:101FD000822B888304C0F8948C91822B8C939FBFB2
:101FE000DF91CF9108950F931F93CF93DF931F92AB
:101FF000CDB7DEB7282F30E0F901E35CFC4F8491C8
:10200000F901EF5AFC4F1491F901EB59FC4F04917F
:102010000023C1F0882319F0698383DF6981E02FF1
:10202000F0E0EE0FFF1FED57FC4FA591B4919FB765
:10203000F8948C91611103C01095812301C0812B0C
:102040008C939FBF0F90DF91CF911F910F910895B7
:10205000FC01818D228D90E0805C9F4F821B910955
:102060008F7399270895FC01918D828D981731F017
:10207000828DE80FF11D858D90E008958FEF9FEF21
:102080000895FC01918D828D981761F0828DDF019A
:10209000A80FB11D5D968C91928D9F5F9F73928F5B
:1020A00090E008958FEF9FEF08958DE19BE0892BDD
:1020B00041F080E090E0892B21F0BFDA81110C948F
:1020C00000000895FC01848DDF01A80FB11DA35A03
:1020D000BF4F2C91848D90E001968F739927848F48
:1020E000A689B7892C93A089B1898C9180648C933F
:1020F000938D848D981306C00288F389E02D80812A
:102100008F7D80830895CF93DF93EC01888D8823A2
:10211000C1F0EA89FB89808185FD05C0A889B9895C
:102120008C9186FD0EC00FB607FCF5CF808185FF30
:10213000F2CFA889B9898C9185FFEDCFCE01C2DF9E
:10214000E8CFDF91CF910895CF92DF92FF920F9366
:102150001F93CF93DF931F92CDB7DEB76C0181E061
:10216000D60158968C9358975B969C915B975C969A
:102170008C915C97981307C05096ED91FC91519704
:10218000808185FD2DC0F601038D10E00F5F1F4F8C
:102190000F731127F02EF601848DF81210C00FB6C0
:1021A00007FCF9CFD6015096ED91FC9151978081B3
:1021B00085FFF1CFC601698385DF6981ECCF838D0F
:1021C000E80FF11DE35AFF4F6083D6015B960C9335
:1021D0005B975296ED91FC915397808180620CC081
:1021E000D6015696ED91FC91579760835096ED91EC
:1021F000FC91519780818064808381E090E00F9012
:10220000DF91CF911F910F91FF90DF90CF900895B4
:10221000BF92CF92DF92EF92FF92CF93DF93EC01C8
:102220006A017B01B22EE889F98982E08083411539
:1022300081EE58076105710599F060E079E08DE362
:1022400090E0A7019601F5D22150310941095109C9
:102250005695479537952795211580E1380790F0D9
:10226000E889F989108260E874E88EE190E0A701BE
:102270009601DFD221503109410951095695479500
:1022800037952795EC85FD853083EE85FF85208386
:10229000188EEC89FD89B082EA89FB898081806192
:1022A0008083EA89FB89808188608083EA89FB8951
:1022B000808180688083EA89FB8980818F7D80832B
:1022C000DF91CF91FF90EF90DF90CF90BF90089576
:1022D0000895CF93DF93EC0160E08E8184DE81E08E
:1022E00090E0BCDD61E08E817EDE81E090E0B6DDD5
:1022F00060E08E8178DE84E690E0DF91CF91AECD14
:10230000EF92FF920F931F93CF93DF938C01C0E066
:10231000D0E0E62EF12CB7010C2E02C07595679522
:102320000A94E2F76170F801EC0FFD1F87815BDE14
:102330002196C430D10579F7C801DF91CF911F9163
:102340000F91FF90EF90C5CFEF92FF920F931F93E5
:10235000CF93DF938C01C0E0D0E0E62EF12CB701E3
:102360000C2E02C0759567950A94E2F76170F8012A
:10237000EC0FFD1F878137DE2196C830D10579F734
:10238000C801DF91CF911F910F91FF90EF90A1CFE6
:102390001F93CF93DF93EC01162F642F8C8123DEE4
:1023A0008D818F3F11F060E01EDE8F85612F84FFED
:1023B00005C0CE01DF91CF911F91C6CF70E084E0C0
:1023C000759567958A95E1F7CE019ADF612FCE0169
:1023D000DF91CF911F9194CF40E0DACF61E0FCDF35
:1023E00080ED97E03BCD443008F043E0FC012389C9
:1023F000421710F04FEF420FFC01E40FF11D24894A
:10240000260F2068622FE8CFFC016089262F246008
:10241000208B6C60E1CF0F931F93CF93DF93EC0180
:10242000423018F08F8588608F874B8B1C8A80E440
:102430008D8B6E8B70E0605C7F4F6F8B222329F059
:10244000413019F48F8584608F8761E08C8192DD43
:102450008D818F3F11F061E08DDD61E08E818ADD3D
:1024600000E010E08F8584FF03C088E090E002C0A8
:1024700084E090E0081719074CF4FE01E00FF11F0B
:1024800061E0878177DD0F5F1F4FECCF80E593EC34
:10249000E5DC60E08C81A7DD60E08E81A4DD8D81CC
:1024A0008F3F11F060E09FDD6F8564FD16C063E033
:1024B000CE0126DF84E991E1D1DC63E0CE0120DFAB
:1024C00084E991E1CBDC63E0CE011ADF86E990E09C
:1024D000C5DC62E0CE0114DF11C06062CE017CDF9A
:1024E00084E991E1BBDC6F856062CE0175DF86E92E
:1024F00090E0B4DC6F856062CE016EDF6F85606254
:10250000CE016ADF84E0888BCE017EDFCE0166DFFC
:1025100082E0898B66E0CE01DF91CF911F910F9110
:102520005BCFCF92EF920F93FC011382128283EA6A
:1025300091E09183808364838FEF85834683278333
:102540000087E186C286138614861586168617864E
:1025500020E041E060E1CF010F91EF90CF905BCFA1
:1025600041E016DF81E090E00895EF920F93FC01C7
:10257000CB01BA01A9019C018530910514F024E03A
:1025800030E037FF02C020E030E031832083428317
:102590005383648375830683E78226E083EF91E0AB
:1025A0000F91EF9035CE0F931F93CF93DF93CDB75D
:1025B000DEB760970FB6F894DEBF0FBECDBFFC014B
:1025C00086818823C1F0F6DB9F938F937F936F936F
:1025D00087EA91E09F938F938E010F5F1F4F1F93A8
:1025E0000F93FBD4B80183EF91E0E2D80FB6F894D3
:1025F000DEBF0FBECDBF60960FB6F894DEBF0FBE34
:10260000CDBFDF91CF911F910F9108950F931F932D
:10261000CF93DF93062FC8E0D0E010E8812F80230E
:10262000811302C061E301C060E383EF91E0C1D890
:1026300016952197209791F7DF91CF911F910F91D8
:1026400008950F931F93CF93DF938C01EA016623C4
:1026500009F4B1C0653239F483EF91E0DF91CF9195
:102660001F910F91A6C8633749F4E881F981CF0122
:10267000029699838883608171817AC0643611F0F3
:10268000693659F4E881F981CF01029699838883EC
:10269000608171814AE050E00CC0683789F4E881BC
:1026A000F981CF010296998388836081718140E12D
:1026B00050E083EF91E0DF91CF911F910F9122C9FC
:1026C000683531F463EB71E083EF91E071D8E7CFC7
:1026D000623639F0623481F466EB71E083EF91E0A9
:1026E00067D8E881F981CF01029699838883608158
:1026F000718142E050E0DDCF693739F0693591F4FE
:1027000066EB71E083EF91E053D8E881F981CF0166
:102710000296998388836081C801DF91CF911F91D0
:102720000F9174CF6C3699F4E881F981CF0104964A
:102730009983888340815181628173812AE030E0EE
:1027400083EF91E0DF91CF911F910F9194C8633691
:1027500009F498CF6437B1F4E881F981CF0102968A
:102760009983888380819181019749F469EB71E0B5
:1027700083EF91E0DF91CF911F910F9119C86BEB1F
:1027800071E0F6CF6435B9F4E881F981CF010296A2
:102790009983888380819181019719F46DE973E0B1
:1027A00002C067E973E083EF91E0DF91CF911F9161
:1027B0000F910C94A70BDF91CF911F910F9108956A
:1027C000CF92DF92EF92FF920F931F93CF93DF93FD
:1027D00000D0CDB7DEB77C015A8349838B010F5FF0
:1027E0001F4FFB0164916623C9F0653269F46801EB
:1027F000FFEFCF1ADF0AF8016491AE014F5F5F4F20
:10280000C7011FDF860104C083EF91E00E94D90B4E
:10281000C8010196F80164918C01E5CF0F900F90EB
:10282000DF91CF911F910F91FF90EF90DF90CF90AC
:102830000895A1E21A2EAA1BBB1BFD010DC0AA1F01
:10284000BB1FEE1FFF1FA217B307E407F50720F019
:10285000A21BB30BE40BF50B661F771F881F991F94
:102860001A9469F760957095809590959B01AC01DD
:10287000BD01CF010895E894DF93CF93FC01DB0104
:10288000F7D07F936F93E9019A01AC01BF93AF93A7
:102890003F932F93DF01ECD026F46C1B7D0B820B52
:1028A000930B9E01EB01FC01F2D0AF91BF912F91F0
:1028B0003F91EDD0BE01CF01F9012F913F91CF9112
:1028C000DF910895689401C0E894F92FF12B0AF084
:1028D00027C0A0E0B0E0EEE6F4E193C0092E059435
:1028E0001AF479D0112392F4F0E80F26FFEFE09468
:1028F000F09400951095B094C094D094A194BF0A20
:10290000CF0ADF0AEF0AFF0A0F0B1F0B13D007FCD9
:1029100062D0CDB7DEB7ECE090C0689401C0E89417
:102920008F929F92CF93DF9305D0DF91CF919F90AD
:102930008F90089588249924F401E401B0E49F93D2
:10294000AA279A158B049C04ED05FE05CF05D00738
:10295000A10798F4AD2FDC2FCF2FFE2FE92D982C57
:10296000892E982F872F762F652F542F432F322FA4
:102970002227B85031F7BF9127C01B2EBF91BB272C
:10298000220F331F441F551F661F771F881F991F73
:10299000881C991CEE1FFF1FCC1FDD1FAA1FBB1F29
:1029A0008A149B04EC05FD05CE05DF05A007B107E1
:1029B00048F08A189B08EC09FD09CE09DF09A00B35
:1029C000B10B21601A94E1F62EF49401AF01BE011F
:1029D000CD01000C08956095709580959095309587
:1029E0004095509521953F4F4F4F5F4F6F4F7F4F11
:1029F0008F4F9F4F08952F923F924F925F926F9209
:102A00007F928F929F92AF92BF92CF92DF92EF927E
:102A1000FF920F931F93CF93DF93CDB7DEB7CA1BFF
:102A2000DB0B0FB6F894DEBF0FBECDBF09942A882A
:102A3000398848885F846E847D848C849B84AA84D2
:102A4000B984C884DF80EE80FD800C811B81AA815F
:102A5000B981CE0FD11D0FB6F894DEBF0FBECDBF2A
:102A6000ED010895EE0FFF1F0590F491E02D0994FC
:102A7000A29FB001B39FC001A39F700D811D1124BF
:102A8000911DB29F700D811D1124911D0895F0DFDD
:102A9000460F571FC81FD91F08F43196089540D01C
:102AA00008F481E00895E89409C097FB3EF49095FE
:102AB0008095709561957F4F8F4F9F4F9923A9F017
:102AC000F92F96E9BB279395F695879577956795A6
:102AD000B795F111F8CFFAF4BB0F11F460FF1BC0EA
:102AE0006F5F7F4F8F4F9F4F16C0882311F096E97D
:102AF00011C0772321F09EE8872F762F05C066232B
:102B000071F096E8862F70E060E02AF09A95660FE3
:102B1000771F881FDAF7880F9695879597F908959C
:102B2000990F0008550FAA0BE0E8FEEF16161706DE
:102B3000E807F907C0F012161306E407F50798F046
:102B4000621B730B840B950B39F40A2661F0232B5F
:102B5000242B252B21F408950A2609F4A140A695DB
:102B60008FEF811D811D0895DBDF880B990B089580
:102B7000CF93DF938230910510F482E090E0E091F2
:102B8000A702F091A80220E030E0A0E0B0E030978A
:102B900039F14081518148175907B8F04817590752
:102BA00071F482819381109729F013969C938E93F0
:102BB00012972CC09093A8028093A70227C02115DA
:102BC000310531F04217530718F0A901DB0101C0AC
:102BD000EF019A01BD01DF010280F381E02DD7CF23
:102BE00021153105F9F0281B390B2430310580F40B
:102BF0008A819B816115710521F0FB01938382839A
:102C000004C09093A8028093A702FE01329644C0AC
:102C1000FE01E20FF31F8193919322503109398312
:102C200028833AC02091A5023091A602232B41F4BB
:102C300020910201309103013093A6022093A50256
:102C400020910001309101012115310541F42DB78A
:102C50003EB74091040150910501241B350BE091D2
:102C6000A502F091A602E217F307A0F42E1B3F0B7A
:102C70002817390778F0AC014E5F5F4F24173507EE
:102C800048F04E0F5F1F5093A6024093A502819318
:102C9000919302C0E0E0F0E0CF01DF91CF91089581
:102CA000CF93DF93009709F487C0FC01329713821A
:102CB0001282C091A702D091A802209781F42081AE
:102CC0003181280F391F8091A5029091A6028217A9
:102CD000930779F5F093A602E093A5026DC0DE019B
:102CE00020E030E0AE17BF0750F412964D915C9192
:102CF00013979D014115510509F1DA01F3CFB38313
:102D0000A28340815181840F951F8A179B0771F41C
:102D10008D919C911197840F951F029691838083CA
:102D200012968D919C91139793838283211531057F
:102D300029F4F093A802E093A7023EC0D9011396AC
:102D4000FC93EE9312974D915D91A40FB51FEA1776
:102D5000FB0779F480819181840F951F0296D90138
:102D600011969C938E938281938113969C938E935C
:102D70001297E0E0F0E08A819B81009719F0FE0154
:102D8000EC01F9CFCE01029628813981820F931F81
:102D90002091A5023091A6022817390769F43097CF
:102DA00029F41092A8021092A70202C01382128284
:102DB000D093A602C093A502DF91CF910895A0E021
:102DC000B0E0E4EEF6E11BCEEC01CB01209711F46C
:102DD000CFDEB4C0FE01E60FF71F9E01225031097D
:102DE000E217F30708F4A8C0D9010D911C911197BF
:102DF00006171707B0F00530110508F49BC0A801AD
:102E0000445051094617570708F494C0025011095D
:102E1000061B170B019311936D937C93CF0140DF39
:102E200089C05B01A01AB10A4E01800E911EA091CB
:102E3000A702B091A802612C712C60E070E010979D
:102E400009F449C0A815B905C9F5ED90FC90119792
:102E5000670142E0C40ED11CCA14DB0478F14701BB
:102E60008A189B08640142E0C40ED11C1296BC90E3
:102E700012971396AC91B5E0CB16D10440F0B28214
:102E8000A38391828082D9018D939C9309C00E5FA8
:102E90001F4F0E0D1F1DF90111830083EB2DFA2F1B
:102EA0006115710531F0DB011396FC93EE931297D7
:102EB00041C0F093A802E093A7023CC06D917C91C1
:102EC00011976616770608F43B01BD0112960D9026
:102ED000BC91A02DB4CF6091A5027091A602681597
:102EE0007905E9F468167906D0F440910001509113
:102EF00001014115510541F44DB75EB760910401E0
:102F000070910501461B570BE417F507A8F4F093E1
:102F1000A602E093A502F901918380830BC028DE0D
:102F20007C01009749F0A801BE011CD0CE01B8DE9B
:102F3000C70104C0CE0102C080E090E0CDB7DEB78B
:102F4000EEE079CDFB01DC0105900D920020E1F768
:102F50000895FC0105900020E9F7809590958E0F6B
:102F60009F1F0895FB01DC0102C001900D924150AA
:102F70005040D8F70895FB01DC0101900D9200202C
:102F8000E1F708952532310518F4223008F004C025
:102F9000FA011082CA010895BB27FA01A62F621711
:102FA000710581059105330B30FB66F0AA27660F8A
:102FB000771F881F991FAA1FA21710F0A21B6395E5
:102FC0003850A9F7A05DAA3308F0A95DA19336F7A0
:102FD000B111B1931082CA010EC2AEE0B0E0E2EFCF
:102FE000F7E117CD0D891E8986E08C831A8309834A
:102FF0008FEF9FE79E838D83AE01475E5F4F6F89A2
:10300000788DCE01019608D0EF81F885E00FF11F91
:1030100010822E96E4E019CDACE0B0E0E1E1F8E1F9
:10302000EACC7C016B018A01FC0117821682838144
:1030300081FFB0C1CE0101964C01F7019381F601E9
:1030400093FD859193FF81916F01882309F49EC1BF
:10305000853239F493FD859193FF81916F0185321B
:1030600021F4B70190E0D7D1E8CF512C312C20E0EA
:103070002032A0F48B3269F030F4803259F0833280
:1030800069F420612CC08D3239F0803339F421602D
:1030900026C02260246023C0286021C027FD27C0ED
:1030A00030ED380F3A3078F426FF06C0FAE05F9E24
:1030B000300D1124532E13C08AE0389E300D112498
:1030C000332E20620CC08E3221F426FD5FC12064B5
:1030D00006C08C3611F4206802C0883641F4F6012F
:1030E00093FD859193FF81916F018111C1CF982F3D
:1030F0009F7D9554933028F40C5F1F4FFFE3F983B5
:103100000DC0833631F0833771F0833509F057C035
:1031100021C0F801808189830E5F1F4F44244394AE
:10312000512C540114C03801F2E06F0E711CF801EB
:10313000A080B18026FF03C0652D70E002C06FEF54
:103140007FEFC5012C874CD12C0183012C852F7773
:10315000222E16C03801F2E06F0E711CF801A0801B
:10316000B18026FF03C0652D70E002C06FEF7FEFD6
:10317000C5012C872AD12C012C852068222E8301A1
:1031800023FC19C0832D90E048165906A0F4B7011E
:1031900080E290E040D13A94F5CFF50127FC85918B
:1031A00027FE81915F01B70190E035D131103A944B
:1031B000F1E04F1A51084114510479F7DEC084360A
:1031C00011F0893631F5F80127FF07C06081718160
:1031D000828193810C5F1F4F08C0608171818827B5
:1031E00077FD8095982F0E5F1F4F2F76B22E97FF99
:1031F00009C090958095709561957F4F8F4F9F4F37
:103200002068B22E2AE030E0A40137D1A82EA818F9
:1032100043C0853729F42F7EB22E2AE030E025C046
:10322000F22FF97FBF2E8F36C1F018F4883579F070
:10323000ADC0803719F0883721F0A8C02F2F20614A
:10324000B22EB4FE0DC08B2D8460B82E09C024FFB1
:103250000AC09F2F9660B92E06C028E030E005C056
:1032600020E130E002C020E132E0F801B7FE07C003
:1032700060817181828193810C5F1F4F06C06081E4
:10328000718180E090E00E5F1F4FA401F6D0A82E60
:10329000A818FB2DFF77BF2EB6FE0BC02B2D2E7F5F
:1032A000A51450F4B4FE0AC0B2FC08C02B2D2E7E2B
:1032B00005C07A2C2B2D03C07A2C01C0752C24FF5D
:1032C0000DC0FE01EA0DF11D8081803311F4297ECD
:1032D00009C022FF06C07394739404C0822F8678BD
:1032E00009F0739423FD12C020FF06C05A2C7314FA
:1032F00018F4530C5718732C731460F4B70180E260
:1033000090E02C8788D073942C85F6CF731410F43A
:10331000371801C0312C24FF11C0B70180E390E0C1
:103320002C8779D02C8522FF16C021FF03C088E5A9
:1033300090E002C088E790E0B7010CC0822F867849
:1033400051F021FD02C080E201C08BE227FD8DE239
:10335000B70190E060D0A51430F4B70180E390E0AD
:103360005AD05A94F8CFAA94F401EA0DF11D808145
:10337000B70190E050D0A110F6CF332009F45DCE14
:10338000B70180E290E047D03A94F7CFF701868109
:10339000978102C08FEF9FEF2C96E2E148CBF9991D
:1033A000FECF92BD81BDF89A992780B50895262F4A
:1033B000F999FECF1FBA92BD81BD20BD0FB6F8941A
:1033C000FA9AF99A0FBE01960895FC010590615092
:1033D00070400110D8F7809590958E0F9F1F08952B
:1033E000FC016150704001900110D8F780959095D4
:1033F0008E0F9F1F0895DC01FC01672F71917723C9
:10340000E1F7329704C07C916D9370836291AE179F
:10341000BF07C8F308950F931F93CF93DF93182F1F
:10342000092FEB018B8181FD03C08FEF9FEF20C03F
:1034300082FF10C04E815F812C813D81421753076E
:103440007CF4E881F9819F012F5F3F4F3983288306
:10345000108306C0E885F985812F0995892B29F706
:103460002E813F812F5F3F4F3F832E83812F902FEF
:10347000DF91CF911F910F910895FA01AA2728306B
:1034800051F1203181F1E8946F936E7F6E5F7F4F31
:103490008F4F9F4FAF4FB1E03ED0B4E03CD0670FAD
:1034A000781F891F9A1FA11D680F791F8A1F911D00
:1034B000A11D6A0F711D811D911DA11D20D009F450
:1034C00068943F912AE0269F11243019305D319392
:1034D000DEF6CF010895462F4770405D4193B3E07B
:1034E0000FD0C9F7F6CF462F4F70405D4A3318F022
:1034F000495D31FD4052419302D0A9F7EACFB4E0D3
:10350000A6959795879577956795BA95C9F700978A
:103510006105710508959B01AC010A2E069457952B
:10352000479537952795BA95C9F7620F731F841F82
:10353000951FA01D0895F894FFCF0000A902200058
:1035400019FCFFFF03E80300009B0C9B0C014D31AD
:10355000004D32002B002D00010000000A00000089
:1035600064000000E803000010270000A0860100AE
:1035700040420F0020487A00010000000A000000CD
:1035800064000000E803000010270000A08601008E
:1035900040420F004D0020200000050A01000000FD
:1035A0000A00000064000000E8030000102700008B
:1035B000A086010040420F000D0A006E616E006996
:1035C0006E66006F7666002E0000000000A4106991
:1035D0000B281041103310831000000000B0126956
:1035E0000B253031306C75206D733A200030780037
:1035F0003062005400460000FFFFFFFFFFFFFFFFA7
:1036000000A086010040420F004D00202000000570
:103610000A010000000A00000064000000E8030046
:103620000010270000A086010040420F000D0A0094
:103630006E616E00696E66006F7666002E00000097
:1036400000001911DF0B9D10B610A810F810000033
:1036500000002513DF0B3078003062005400460074
:10366000253031306C75206D733A2000FFFFFFFF6D
:10367000FFFFFFFFFFFFFFFFFFFFFFFFFFFFFFFF5A
:10368000841F951FA01D08952F923F924F925F9225
:103690006F927F928F929F92AF92BF92CF92DF9262
:1036A000EF92FF920F931F93CF93DF93CDB7DEB7C7
:1036B000CA1BDB0B0FB6F894DEBF0FBECDBF09945B
:1036C0002A88398848885F846E847D848C849B84B2
:1036D000AA84B984C884DF80EE80FD800C811B81C0
:1036E000AA81B981CE0FD11D0FB6F894DEBF0FBEEF
:1036F000CDBFED010895F894FFCF00005A022000DD
:103700000500007A4401000080BF6320487A004D24
:10371000002020002B002D0000050A0AD7233CCDF5
:10372000CCCC3D0000803F000020410000C842009A
:10373000007A4400401C460050C347002474490DE1
:103740000A006E616E00696E66006F7666002E007C
:1037500000000000AD0EE109310E4A0E3C0E8C0E49
:1037600000000000B910E109307800306200540018
:103770004600253031306C75206D733A2000FFFF14
:103780002013B8F77E9170617D9330F0839571E3DB
:103790007D9370E32A95E1F71124EF90FF900F914C
:1037A0001F91CF91DF91992787FD90950895FC0196
:1037B0000590615070400110D8F7809590958E0F5C
:1037C0009F1F0895FC016150704001900110D8F7CF
:1037D000809590958E0F9F1F08950F931F93CF9301
:1037E000DF93182F092FEB018B8181FD03C08FEF31
:1037F0009FEF20C082FF10C04E815F812C813D81F0
:10380000421753077CF4E881F9819F012F5F3F4FF6
:1038100039832883108306C0E885F985812F0995AF
:10382000892B29F72E813F812F5F3F4F3F832E83C6
:10383000812F902FDF91CF911F910F910895FA0161
:10384000AA27283051F1203181F1E8946F936E7FDF
:103850006E5F7F4F8F4F9F4FAF4FB1E03ED0B4E0D0
:103860003CD0670F781F891F9A1FA11D680F791F11
:103870008A1F911DA11D6A0F711D811D911DA11D22
:1038800020D009F468943F912AE0269F1124301932
:10389000305D3193DEF6CF010895462F4770405DCD
:1038A0004193B3E00FD0C9F7F6CF462F4F70405D7C
:1038B0004A3318F0495D31FD4052419302D0A9F7D7
:1038C000EACFB4E0A6959795879577956795BA95D1
:1038D000C9F700976105710508959B01AC010A2E97
:1038E00006945795479537952795BA95C9F7620F6E
:1038F000731F841F951FA01D08952F923F924F9212
:103900005F926F927F928F929F92AF92BF92CF926F
:10391000DF92EF92FF920F931F93CF93DF93CDB778
:10392000DEB7CA1BDB0B0FB6F894DEBF0FBECDBFF0
:1039300009942A88398848885F846E847D848C84C1
:103940009B84AA84B984C884DF80EE80FD800C81CA
:103950001B81AA81B981CE0FD11D0FB6F894DEBFAD
:103960000FBECDBFED010895F894FFCF00004A02CD
:1039700080000500007A4401000080BF63307800B9
:1039800030620054004600253031306C75206D7374
:103990003A200020487A004D002020002B002D0006
:1039A00000050A0AD7233CCDCCCC3D0000803F0067
:1039B0000020410000C84200007A4400401C46003C
:1039C00050C3470024744900000000850C201000FB
:1039D000000000A40E2010260E3F0E310E820E00B5
:1039E000FFFFFFFFFFFFFFFFFFFFFFFFFFFFFFFFE7
:1039F000FFFFFFFFFFFFFFFFFFFFFFFFFFFFFFFFD7
:103A00000A2E06945795479537952795BA95C9F785
:103A1000620F731F841F951FA01D08952F923F9260
:103A20004F925F926F927F928F929F92AF92BF92CE
:103A3000CF92DF92EF92FF920F931F93CF93DF937A
:103A4000CDB7DEB7CA1BDB0B0FB6F894DEBF0FBED7
:103A5000CDBF09942A88398848885F846E847D8424
:103A60008C849B84AA84B984C884DF80EE80FD8026
:103A70000C811B81AA81B981CE0FD11D0FB6F8949C
:103A8000DEBF0FBECDBFED010895F894FFCF00005B
:103A9000C60280000500007A4401000080BF633048
:103AA000780030620054004600253031306C7520BB
:103AB0006D733A200053657474696E672066726591
:103AC0007175656E637920746F20414439383530E3
:103AD0003A2000203D200020487A00526561642091
:103AE00066726F6D20454550524F4D002C20646525
:103AF0006C74612000202000536176656420746F2F
:103B000020454550524F4D002B002D005365742029
:103B10006E6577206672657175656E63793A20000F
:103B2000536574206E65772064656C74613A20007B
:103B300000050A0AD7233CCDCCCC3D0000803F00D5
:103B40000020410000C84200007A4400401C4600AA
:103B500050C3470024744900000000050CA00F006A
:103B6000000000240EA00FA60DBF0DB10D020E6EB9
:103B7000616E00696E66006F7666002E0000FFFFC2
:103B8000002E0000FFFFFFFFFFFFFFFFFFFFFFFF13
:103B9000FFFFFFFFFFFFFFFFFFFFFFFFFFFFFFFF35
:103BA000FFFFFFFFFFFFFFFFFFFFFFFFFFFFFFFF25
:103BB000FFFFFFFFFFFFFFFFFFFFFFFFFFFFFFFF15
:103BC000FFFFFFFFFFFFFFFFFFFFFFFFFFFFFFFF05
:107E0000112484B714BE81FFF0D085E080938100F7
:107E100082E08093C00088E18093C10086E0809377
:107E2000C20080E18093C4008EE0C9D0259A86E02C
:107E300020E33CEF91E0309385002093840096BBD3
:107E4000B09BFECF1D9AA8958150A9F7CC24DD24C4
:107E500088248394B5E0AB2EA1E19A2EF3E0BF2EE7
:107E6000A2D0813461F49FD0082FAFD0023811F036
:107E7000013811F484E001C083E08DD089C08234E0
:107E800011F484E103C0853419F485E0A6D080C0E4
:107E9000853579F488D0E82EFF2485D0082F10E0AE
:107EA000102F00270E291F29000F111F8ED06801E7
:107EB0006FC0863521F484E090D080E0DECF843638
:107EC00009F040C070D06FD0082F6DD080E0C81688
:107ED00080E7D80618F4F601B7BEE895C0E0D1E017
:107EE00062D089930C17E1F7F0E0CF16F0E7DF06D8
:107EF00018F0F601B7BEE89568D007B600FCFDCFD4
:107F0000A601A0E0B1E02C9130E011968C91119780
:107F100090E0982F8827822B932B1296FA010C0160
:107F200087BEE89511244E5F5F4FF1E0A038BF0790
:107F300051F7F601A7BEE89507B600FCFDCF97BE46
:107F4000E89526C08437B1F42ED02DD0F82E2BD052
:107F50003CD0F601EF2C8F010F5F1F4F84911BD097
:107F6000EA94F801C1F70894C11CD11CFA94CF0C13
:107F7000D11C0EC0853739F428D08EE10CD085E9AC
:107F80000AD08FE07ACF813511F488E018D01DD067
:107F900080E101D065CF982F8091C00085FFFCCF94
:107FA0009093C60008958091C00087FFFCCF809118
:107FB000C00084FD01C0A8958091C6000895E0E648
:107FC000F0E098E1908380830895EDDF803219F02E
:107FD00088E0F5DFFFCF84E1DECF1F93182FE3DFCA
:107FE0001150E9F7F2DF1F91089580E0E8DFEE27F6
:107FF000FF270994FFFFFFFFFFFFFFFFFFFF0404C0
:00000001FF
